{
  "_format": "hh-sol-artifact-1",
  "contractName": "SupplyChain",
  "sourceName": "contracts/SupplyChain.sol",
  "abi": [
    {
      "inputs": [],
      "stateMutability": "nonpayable",
      "type": "constructor"
    },
    {
      "anonymous": false,
      "inputs": [
        {
          "indexed": true,
          "internalType": "uint256",
          "name": "productId",
          "type": "uint256"
        },
        {
          "indexed": true,
          "internalType": "address",
          "name": "from",
          "type": "address"
        },
        {
          "indexed": true,
          "internalType": "address",
          "name": "to",
          "type": "address"
        },
        {
          "indexed": false,
          "internalType": "enum SupplyChain.Status",
          "name": "status",
          "type": "uint8"
        }
      ],
      "name": "OwnershipTransferred",
      "type": "event"
    },
    {
      "anonymous": false,
      "inputs": [
        {
          "indexed": true,
          "internalType": "uint256",
          "name": "productId",
          "type": "uint256"
        },
        {
          "indexed": false,
          "internalType": "string",
          "name": "name",
          "type": "string"
        },
        {
          "indexed": false,
          "internalType": "string",
          "name": "batchId",
          "type": "string"
        },
        {
          "indexed": true,
          "internalType": "address",
          "name": "manufacturer",
          "type": "address"
        }
      ],
      "name": "ProductCreated",
      "type": "event"
    },
    {
      "anonymous": false,
      "inputs": [
        {
          "indexed": true,
          "internalType": "address",
          "name": "user",
          "type": "address"
        },
        {
          "indexed": false,
          "internalType": "enum SupplyChain.Role",
          "name": "role",
          "type": "uint8"
        }
      ],
      "name": "RoleAssigned",
      "type": "event"
    },
    {
      "inputs": [],
      "name": "admin",
      "outputs": [
        {
          "internalType": "address",
          "name": "",
          "type": "address"
        }
      ],
      "stateMutability": "view",
      "type": "function"
    },
    {
      "inputs": [
        {
          "internalType": "address",
          "name": "_user",
          "type": "address"
        },
        {
          "internalType": "enum SupplyChain.Role",
          "name": "_role",
          "type": "uint8"
        }
      ],
      "name": "assignRole",
      "outputs": [],
      "stateMutability": "nonpayable",
      "type": "function"
    },
    {
      "inputs": [
        {
          "internalType": "string",
          "name": "_name",
          "type": "string"
        },
        {
          "internalType": "string",
          "name": "_batchId",
          "type": "string"
        }
      ],
      "name": "createProduct",
      "outputs": [],
      "stateMutability": "nonpayable",
      "type": "function"
    },
    {
      "inputs": [
        {
          "internalType": "uint256",
          "name": "_productId",
          "type": "uint256"
        }
      ],
      "name": "getProductHistory",
      "outputs": [
        {
          "components": [
            {
              "internalType": "address",
              "name": "actor",
              "type": "address"
            },
            {
              "internalType": "enum SupplyChain.Status",
              "name": "status",
              "type": "uint8"
            },
            {
              "internalType": "uint256",
              "name": "timestamp",
              "type": "uint256"
            }
          ],
          "internalType": "struct SupplyChain.History[]",
          "name": "",
          "type": "tuple[]"
        }
      ],
      "stateMutability": "view",
      "type": "function"
    },
    {
      "inputs": [],
      "name": "productCount",
      "outputs": [
        {
          "internalType": "uint256",
          "name": "",
          "type": "uint256"
        }
      ],
      "stateMutability": "view",
      "type": "function"
    },
    {
      "inputs": [
        {
          "internalType": "uint256",
          "name": "",
          "type": "uint256"
        },
        {
          "internalType": "uint256",
          "name": "",
          "type": "uint256"
        }
      ],
      "name": "productHistory",
      "outputs": [
        {
          "internalType": "address",
          "name": "actor",
          "type": "address"
        },
        {
          "internalType": "enum SupplyChain.Status",
          "name": "status",
          "type": "uint8"
        },
        {
          "internalType": "uint256",
          "name": "timestamp",
          "type": "uint256"
        }
      ],
      "stateMutability": "view",
      "type": "function"
    },
    {
      "inputs": [
        {
          "internalType": "uint256",
          "name": "",
          "type": "uint256"
        }
      ],
      "name": "products",
      "outputs": [
        {
          "internalType": "uint256",
          "name": "id",
          "type": "uint256"
        },
        {
          "internalType": "string",
          "name": "name",
          "type": "string"
        },
        {
          "internalType": "string",
          "name": "batchId",
          "type": "string"
        },
        {
          "internalType": "address",
          "name": "owner",
          "type": "address"
        },
        {
          "internalType": "enum SupplyChain.Status",
          "name": "status",
          "type": "uint8"
        },
        {
          "internalType": "uint256",
          "name": "createdAt",
          "type": "uint256"
        }
      ],
      "stateMutability": "view",
      "type": "function"
    },
    {
      "inputs": [
        {
          "internalType": "address",
          "name": "",
          "type": "address"
        }
      ],
      "name": "roles",
      "outputs": [
        {
          "internalType": "enum SupplyChain.Role",
          "name": "",
          "type": "uint8"
        }
      ],
      "stateMutability": "view",
      "type": "function"
    },
    {
      "inputs": [
        {
          "internalType": "uint256",
          "name": "_productId",
          "type": "uint256"
        },
        {
          "internalType": "address",
          "name": "_distributor",
          "type": "address"
        }
      ],
      "name": "transferToDistributor",
      "outputs": [],
      "stateMutability": "nonpayable",
      "type": "function"
    },
    {
      "inputs": [
        {
          "internalType": "uint256",
          "name": "_productId",
          "type": "uint256"
        },
        {
          "internalType": "address",
          "name": "_retailer",
          "type": "address"
        }
      ],
      "name": "transferToRetailer",
      "outputs": [],
      "stateMutability": "nonpayable",
      "type": "function"
    }
  ],
  "bytecode": "0x608060405234801561001057600080fd5b50336000806101000a81548173ffffffffffffffffffffffffffffffffffffffff021916908373ffffffffffffffffffffffffffffffffffffffff160217905550611f00806100606000396000f3fe608060405234801561001057600080fd5b506004361061009e5760003560e01c80639937464211610066578063993746421461017257806399604f40146101a2578063e0f6ef87146101be578063e229f2cb146101dc578063f851a440146101f85761009e565b80633a7d2376146100a357806357a096a1146100d5578063630a195b146101055780637acc0b201461012157806387592bce14610156575b600080fd5b6100bd60048036038101906100b89190611219565b610216565b6040516100cc93929190611320565b60405180910390f35b6100ef60048036038101906100ea9190611357565b61028a565b6040516100fc91906114a2565b60405180910390f35b61011f600480360381019061011a9190611515565b610397565b005b61013b60048036038101906101369190611357565b6104de565b60405161014d969594939291906115e5565b60405180910390f35b610170600480360381019061016b9190611789565b610657565b005b61018c60048036038101906101879190611801565b6109a7565b6040516101999190611876565b60405180910390f35b6101bc60048036038101906101b79190611891565b6109c7565b005b6101c6610db5565b6040516101d391906118d1565b60405180910390f35b6101f660048036038101906101f19190611891565b610dbb565b005b6102006111ab565b60405161020d91906118ec565b60405180910390f35b6004602052816000526040600020818154811061023257600080fd5b9060005260206000209060020201600091509150508060000160009054906101000a900473ffffffffffffffffffffffffffffffffffffffff16908060000160149054906101000a900460ff16908060010154905083565b606060046000838152602001908152602001600020805480602002602001604051908101604052809291908181526020016000905b8282101561038c57838290600052602060002090600202016040518060600160405290816000820160009054906101000a900473ffffffffffffffffffffffffffffffffffffffff1673ffffffffffffffffffffffffffffffffffffffff1673ffffffffffffffffffffffffffffffffffffffff1681526020016000820160149054906101000a900460ff16600281111561035d5761035c61129a565b5b600281111561036f5761036e61129a565b5b8152602001600182015481525050815260200190600101906102bf565b505050509050919050565b60008054906101000a900473ffffffffffffffffffffffffffffffffffffffff1673ffffffffffffffffffffffffffffffffffffffff163373ffffffffffffffffffffffffffffffffffffffff1614610425576040517f08c379a000000000000000000000000000000000000000000000000000000000815260040161041c90611953565b60405180910390fd5b80600260008473ffffffffffffffffffffffffffffffffffffffff1673ffffffffffffffffffffffffffffffffffffffff16815260200190815260200160002060006101000a81548160ff021916908360038111156104875761048661129a565b5b02179055508173ffffffffffffffffffffffffffffffffffffffff167f4ac36fa53f167ceb85964be512e01de2a3b8bdb9862f917da079deeeff689b38826040516104d29190611876565b60405180910390a25050565b6003602052806000526040600020600091509050806000015490806001018054610507906119a2565b80601f0160208091040260200160405190810160405280929190818152602001828054610533906119a2565b80156105805780601f1061055557610100808354040283529160200191610580565b820191906000526020600020905b81548152906001019060200180831161056357829003601f168201915b505050505090806002018054610595906119a2565b80601f01602080910402602001604051908101604052809291908181526020018280546105c1906119a2565b801561060e5780601f106105e35761010080835404028352916020019161060e565b820191906000526020600020905b8154815290600101906020018083116105f157829003601f168201915b5050505050908060030160009054906101000a900473ffffffffffffffffffffffffffffffffffffffff16908060030160149054906101000a900460ff16908060040154905086565b600180600381111561066c5761066b61129a565b5b600260003373ffffffffffffffffffffffffffffffffffffffff1673ffffffffffffffffffffffffffffffffffffffff16815260200190815260200160002060009054906101000a900460ff1660038111156106cb576106ca61129a565b5b1461070b576040517f08c379a000000000000000000000000000000000000000000000000000000000815260040161070290611a1f565b60405180910390fd5b6001600081548092919061071e90611a6e565b91905055506040518060c0016040528060015481526020018481526020018381526020013373ffffffffffffffffffffffffffffffffffffffff168152602001600060028111156107725761077161129a565b5b8152602001428152506003600060015481526020019081526020016000206000820151816000015560208201518160010190816107af9190611c62565b5060408201518160020190816107c59190611c62565b5060608201518160030160006101000a81548173ffffffffffffffffffffffffffffffffffffffff021916908373ffffffffffffffffffffffffffffffffffffffff16021790555060808201518160030160146101000a81548160ff021916908360028111156108385761083761129a565b5b021790555060a0820151816004015590505060046000600154815260200190815260200160002060405180606001604052803373ffffffffffffffffffffffffffffffffffffffff1681526020016000600281111561089a5761089961129a565b5b815260200142815250908060018154018082558091505060019003906000526020600020906002020160009091909190915060008201518160000160006101000a81548173ffffffffffffffffffffffffffffffffffffffff021916908373ffffffffffffffffffffffffffffffffffffffff16021790555060208201518160000160146101000a81548160ff0219169083600281111561093e5761093d61129a565b5b02179055506040820151816001015550503373ffffffffffffffffffffffffffffffffffffffff166001547f5f1912a9c5f8a881e905d410b7f74013932df43b5dec69d074d965f102e19af8858560405161099a929190611d34565b60405180910390a3505050565b60026020528060005260406000206000915054906101000a900460ff1681565b60028060038111156109dc576109db61129a565b5b600260003373ffffffffffffffffffffffffffffffffffffffff1673ffffffffffffffffffffffffffffffffffffffff16815260200190815260200160002060009054906101000a900460ff166003811115610a3b57610a3a61129a565b5b14610a7b576040517f08c379a0000000000000000000000000000000000000000000000000000000008152600401610a7290611a1f565b60405180910390fd5b60006003600085815260200190815260200160002090503373ffffffffffffffffffffffffffffffffffffffff168160030160009054906101000a900473ffffffffffffffffffffffffffffffffffffffff1673ffffffffffffffffffffffffffffffffffffffff1614610b24576040517f08c379a0000000000000000000000000000000000000000000000000000000008152600401610b1b90611db7565b60405180910390fd5b600380811115610b3757610b3661129a565b5b600260008573ffffffffffffffffffffffffffffffffffffffff1673ffffffffffffffffffffffffffffffffffffffff16815260200190815260200160002060009054906101000a900460ff166003811115610b9657610b9561129a565b5b14610bd6576040517f08c379a0000000000000000000000000000000000000000000000000000000008152600401610bcd90611e23565b60405180910390fd5b828160030160006101000a81548173ffffffffffffffffffffffffffffffffffffffff021916908373ffffffffffffffffffffffffffffffffffffffff16021790555060028160030160146101000a81548160ff02191690836002811115610c4157610c4061129a565b5b02179055506004600085815260200190815260200160002060405180606001604052803373ffffffffffffffffffffffffffffffffffffffff168152602001600280811115610c9357610c9261129a565b5b815260200142815250908060018154018082558091505060019003906000526020600020906002020160009091909190915060008201518160000160006101000a81548173ffffffffffffffffffffffffffffffffffffffff021916908373ffffffffffffffffffffffffffffffffffffffff16021790555060208201518160000160146101000a81548160ff02191690836002811115610d3757610d3661129a565b5b02179055506040820151816001015550508273ffffffffffffffffffffffffffffffffffffffff163373ffffffffffffffffffffffffffffffffffffffff16857f0d9d3ad1299833596bec6138aae47314cbb71fb92c7582abed06e22840593ad46002604051610da79190611e43565b60405180910390a450505050565b60015481565b6001806003811115610dd057610dcf61129a565b5b600260003373ffffffffffffffffffffffffffffffffffffffff1673ffffffffffffffffffffffffffffffffffffffff16815260200190815260200160002060009054906101000a900460ff166003811115610e2f57610e2e61129a565b5b14610e6f576040517f08c379a0000000000000000000000000000000000000000000000000000000008152600401610e6690611a1f565b60405180910390fd5b60006003600085815260200190815260200160002090503373ffffffffffffffffffffffffffffffffffffffff168160030160009054906101000a900473ffffffffffffffffffffffffffffffffffffffff1673ffffffffffffffffffffffffffffffffffffffff1614610f18576040517f08c379a0000000000000000000000000000000000000000000000000000000008152600401610f0f90611db7565b60405180910390fd5b60026003811115610f2c57610f2b61129a565b5b600260008573ffffffffffffffffffffffffffffffffffffffff1673ffffffffffffffffffffffffffffffffffffffff16815260200190815260200160002060009054906101000a900460ff166003811115610f8b57610f8a61129a565b5b14610fcb576040517f08c379a0000000000000000000000000000000000000000000000000000000008152600401610fc290611eaa565b60405180910390fd5b828160030160006101000a81548173ffffffffffffffffffffffffffffffffffffffff021916908373ffffffffffffffffffffffffffffffffffffffff16021790555060018160030160146101000a81548160ff021916908360028111156110365761103561129a565b5b02179055506004600085815260200190815260200160002060405180606001604052803373ffffffffffffffffffffffffffffffffffffffff168152602001600160028111156110895761108861129a565b5b815260200142815250908060018154018082558091505060019003906000526020600020906002020160009091909190915060008201518160000160006101000a81548173ffffffffffffffffffffffffffffffffffffffff021916908373ffffffffffffffffffffffffffffffffffffffff16021790555060208201518160000160146101000a81548160ff0219169083600281111561112d5761112c61129a565b5b02179055506040820151816001015550508273ffffffffffffffffffffffffffffffffffffffff163373ffffffffffffffffffffffffffffffffffffffff16857f0d9d3ad1299833596bec6138aae47314cbb71fb92c7582abed06e22840593ad4600160405161119d9190611e43565b60405180910390a450505050565b60008054906101000a900473ffffffffffffffffffffffffffffffffffffffff1681565b6000604051905090565b600080fd5b600080fd5b6000819050919050565b6111f6816111e3565b811461120157600080fd5b50565b600081359050611213816111ed565b92915050565b600080604083850312156112305761122f6111d9565b5b600061123e85828601611204565b925050602061124f85828601611204565b9150509250929050565b600073ffffffffffffffffffffffffffffffffffffffff82169050919050565b600061128482611259565b9050919050565b61129481611279565b82525050565b7f4e487b7100000000000000000000000000000000000000000000000000000000600052602160045260246000fd5b600381106112da576112d961129a565b5b50565b60008190506112eb826112c9565b919050565b60006112fb826112dd565b9050919050565b61130b816112f0565b82525050565b61131a816111e3565b82525050565b6000606082019050611335600083018661128b565b6113426020830185611302565b61134f6040830184611311565b949350505050565b60006020828403121561136d5761136c6111d9565b5b600061137b84828501611204565b91505092915050565b600081519050919050565b600082825260208201905092915050565b6000819050602082019050919050565b6113b981611279565b82525050565b6113c8816112f0565b82525050565b6113d7816111e3565b82525050565b6060820160008201516113f360008501826113b0565b50602082015161140660208501826113bf565b50604082015161141960408501826113ce565b50505050565b600061142b83836113dd565b60608301905092915050565b6000602082019050919050565b600061144f82611384565b611459818561138f565b9350611464836113a0565b8060005b8381101561149557815161147c888261141f565b975061148783611437565b925050600181019050611468565b5085935050505092915050565b600060208201905081810360008301526114bc8184611444565b905092915050565b6114cd81611279565b81146114d857600080fd5b50565b6000813590506114ea816114c4565b92915050565b600481106114fd57600080fd5b50565b60008135905061150f816114f0565b92915050565b6000806040838503121561152c5761152b6111d9565b5b600061153a858286016114db565b925050602061154b85828601611500565b9150509250929050565b600081519050919050565b600082825260208201905092915050565b60005b8381101561158f578082015181840152602081019050611574565b60008484015250505050565b6000601f19601f8301169050919050565b60006115b782611555565b6115c18185611560565b93506115d1818560208601611571565b6115da8161159b565b840191505092915050565b600060c0820190506115fa6000830189611311565b818103602083015261160c81886115ac565b9050818103604083015261162081876115ac565b905061162f606083018661128b565b61163c6080830185611302565b61164960a0830184611311565b979650505050505050565b600080fd5b600080fd5b7f4e487b7100000000000000000000000000000000000000000000000000000000600052604160045260246000fd5b6116968261159b565b810181811067ffffffffffffffff821117156116b5576116b461165e565b5b80604052505050565b60006116c86111cf565b90506116d4828261168d565b919050565b600067ffffffffffffffff8211156116f4576116f361165e565b5b6116fd8261159b565b9050602081019050919050565b82818337600083830152505050565b600061172c611727846116d9565b6116be565b90508281526020810184848401111561174857611747611659565b5b61175384828561170a565b509392505050565b600082601f8301126117705761176f611654565b5b8135611780848260208601611719565b91505092915050565b600080604083850312156117a05761179f6111d9565b5b600083013567ffffffffffffffff8111156117be576117bd6111de565b5b6117ca8582860161175b565b925050602083013567ffffffffffffffff8111156117eb576117ea6111de565b5b6117f78582860161175b565b9150509250929050565b600060208284031215611817576118166111d9565b5b6000611825848285016114db565b91505092915050565b6004811061183f5761183e61129a565b5b50565b60008190506118508261182e565b919050565b600061186082611842565b9050919050565b61187081611855565b82525050565b600060208201905061188b6000830184611867565b92915050565b600080604083850312156118a8576118a76111d9565b5b60006118b685828601611204565b92505060206118c7858286016114db565b9150509250929050565b60006020820190506118e66000830184611311565b92915050565b6000602082019050611901600083018461128b565b92915050565b7f4f6e6c792061646d696e20616c6c6f7765640000000000000000000000000000600082015250565b600061193d601283611560565b915061194882611907565b602082019050919050565b6000602082019050818103600083015261196c81611930565b9050919050565b7f4e487b7100000000000000000000000000000000000000000000000000000000600052602260045260246000fd5b600060028204905060018216806119ba57607f821691505b6020821081036119cd576119cc611973565b5b50919050565b7f4163636573732064656e69656400000000000000000000000000000000000000600082015250565b6000611a09600d83611560565b9150611a14826119d3565b602082019050919050565b60006020820190508181036000830152611a38816119fc565b9050919050565b7f4e487b7100000000000000000000000000000000000000000000000000000000600052601160045260246000fd5b6000611a79826111e3565b91507fffffffffffffffffffffffffffffffffffffffffffffffffffffffffffffffff8203611aab57611aaa611a3f565b5b600182019050919050565b60008190508160005260206000209050919050565b60006020601f8301049050919050565b600082821b905092915050565b600060088302611b187fffffffffffffffffffffffffffffffffffffffffffffffffffffffffffffffff82611adb565b611b228683611adb565b95508019841693508086168417925050509392505050565b6000819050919050565b6000611b5f611b5a611b55846111e3565b611b3a565b6111e3565b9050919050565b6000819050919050565b611b7983611b44565b611b8d611b8582611b66565b848454611ae8565b825550505050565b600090565b611ba2611b95565b611bad818484611b70565b505050565b5b81811015611bd157611bc6600082611b9a565b600181019050611bb3565b5050565b601f821115611c1657611be781611ab6565b611bf084611acb565b81016020851015611bff578190505b611c13611c0b85611acb565b830182611bb2565b50505b505050565b600082821c905092915050565b6000611c3960001984600802611c1b565b1980831691505092915050565b6000611c528383611c28565b9150826002028217905092915050565b611c6b82611555565b67ffffffffffffffff811115611c8457611c8361165e565b5b611c8e82546119a2565b611c99828285611bd5565b600060209050601f831160018114611ccc5760008415611cba578287015190505b611cc48582611c46565b865550611d2c565b601f198416611cda86611ab6565b60005b82811015611d0257848901518255600182019150602085019450602081019050611cdd565b86831015611d1f5784890151611d1b601f891682611c28565b8355505b6001600288020188555050505b505050505050565b60006040820190508181036000830152611d4e81856115ac565b90508181036020830152611d6281846115ac565b90509392505050565b7f4e6f742070726f64756374206f776e6572000000000000000000000000000000600082015250565b6000611da1601183611560565b9150611dac82611d6b565b602082019050919050565b60006020820190508181036000830152611dd081611d94565b9050919050565b7f5265636569766572206e6f742072657461696c65720000000000000000000000600082015250565b6000611e0d601583611560565b9150611e1882611dd7565b602082019050919050565b60006020820190508181036000830152611e3c81611e00565b9050919050565b6000602082019050611e586000830184611302565b92915050565b7f5265636569766572206e6f74206469737472696275746f720000000000000000600082015250565b6000611e94601883611560565b9150611e9f82611e5e565b602082019050919050565b60006020820190508181036000830152611ec381611e87565b905091905056fea2646970667358221220b9b8750b8bc7a894ac470ac1bbe55215300f3fe7f00e52c4a1401090a6453f2664736f6c63430008140033",
  "linkReferences": {},
  "deployedLinkReferences": {}
}