{
  "_format": "hh-sol-artifact-1",
  "contractName": "SupplyChain",
  "sourceName": "contracts/SupplyChain.sol",
  "abi": [
    {
      "anonymous": false,
      "inputs": [
        {
          "indexed": false,
          "internalType": "uint256",
          "name": "productId",
          "type": "uint256"
        },
        {
          "indexed": false,
          "internalType": "address",
          "name": "from",
          "type": "address"
        },
        {
          "indexed": false,
          "internalType": "address",
          "name": "to",
          "type": "address"
        },
        {
          "indexed": false,
          "internalType": "enum SupplyChain.Status",
          "name": "status",
          "type": "uint8"
        }
      ],
      "name": "OwnershipTransferred",
      "type": "event"
    },
    {
      "anonymous": false,
      "inputs": [
        {
          "indexed": false,
          "internalType": "uint256",
          "name": "productId",
          "type": "uint256"
        },
        {
          "indexed": false,
          "internalType": "string",
          "name": "name",
          "type": "string"
        }
      ],
      "name": "ProductCreated",
      "type": "event"
    },
    {
      "anonymous": false,
      "inputs": [
        {
          "indexed": false,
          "internalType": "address",
          "name": "user",
          "type": "address"
        },
        {
          "indexed": false,
          "internalType": "enum SupplyChain.Role",
          "name": "role",
          "type": "uint8"
        }
      ],
      "name": "RoleAssigned",
      "type": "event"
    },
    {
      "inputs": [
        {
          "internalType": "address",
          "name": "_user",
          "type": "address"
        },
        {
          "internalType": "enum SupplyChain.Role",
          "name": "_role",
          "type": "uint8"
        }
      ],
      "name": "assignRole",
      "outputs": [],
      "stateMutability": "nonpayable",
      "type": "function"
    },
    {
      "inputs": [
        {
          "internalType": "string",
          "name": "_name",
          "type": "string"
        }
      ],
      "name": "createProduct",
      "outputs": [],
      "stateMutability": "nonpayable",
      "type": "function"
    },
    {
      "inputs": [],
      "name": "productCount",
      "outputs": [
        {
          "internalType": "uint256",
          "name": "",
          "type": "uint256"
        }
      ],
      "stateMutability": "view",
      "type": "function"
    },
    {
      "inputs": [
        {
          "internalType": "uint256",
          "name": "",
          "type": "uint256"
        }
      ],
      "name": "products",
      "outputs": [
        {
          "internalType": "uint256",
          "name": "id",
          "type": "uint256"
        },
        {
          "internalType": "string",
          "name": "name",
          "type": "string"
        },
        {
          "internalType": "address",
          "name": "owner",
          "type": "address"
        },
        {
          "internalType": "enum SupplyChain.Status",
          "name": "status",
          "type": "uint8"
        }
      ],
      "stateMutability": "view",
      "type": "function"
    },
    {
      "inputs": [
        {
          "internalType": "address",
          "name": "",
          "type": "address"
        }
      ],
      "name": "roles",
      "outputs": [
        {
          "internalType": "enum SupplyChain.Role",
          "name": "",
          "type": "uint8"
        }
      ],
      "stateMutability": "view",
      "type": "function"
    },
    {
      "inputs": [
        {
          "internalType": "uint256",
          "name": "_productId",
          "type": "uint256"
        },
        {
          "internalType": "address",
          "name": "_distributor",
          "type": "address"
        }
      ],
      "name": "transferToDistributor",
      "outputs": [],
      "stateMutability": "nonpayable",
      "type": "function"
    },
    {
      "inputs": [
        {
          "internalType": "uint256",
          "name": "_productId",
          "type": "uint256"
        },
        {
          "internalType": "address",
          "name": "_retailer",
          "type": "address"
        }
      ],
      "name": "transferToRetailer",
      "outputs": [],
      "stateMutability": "nonpayable",
      "type": "function"
    }
  ],
  "bytecode": "0x608060405234801561001057600080fd5b5061135d806100206000396000f3fe608060405234801561001057600080fd5b506004361061007d5760003560e01c8063993746421161005b57806399374642146100ed57806399604f401461011d578063e0f6ef8714610139578063e229f2cb146101575761007d565b806302ec06be14610082578063630a195b1461009e5780637acc0b20146100ba575b600080fd5b61009c60048036038101906100979190610aa2565b610173565b005b6100b860048036038101906100b39190610b6e565b610377565b005b6100d460048036038101906100cf9190610be4565b61041b565b6040516100e49493929190610d25565b60405180910390f35b61010760048036038101906101029190610d71565b610500565b6040516101149190610de6565b60405180910390f35b61013760048036038101906101329190610e01565b610520565b005b610141610731565b60405161014e9190610e41565b60405180910390f35b610171600480360381019061016c9190610e01565b610737565b005b600180600381111561018857610187610cae565b5b600160003373ffffffffffffffffffffffffffffffffffffffff1673ffffffffffffffffffffffffffffffffffffffff16815260200190815260200160002060009054906101000a900460ff1660038111156101e7576101e6610cae565b5b14610227576040517f08c379a000000000000000000000000000000000000000000000000000000000815260040161021e90610ea8565b60405180910390fd5b60008081548092919061023990610ef7565b9190505550604051806080016040528060005481526020018381526020013373ffffffffffffffffffffffffffffffffffffffff1681526020016000600281111561028757610286610cae565b5b81525060026000805481526020019081526020016000206000820151816000015560208201518160010190816102bd919061114b565b5060408201518160020160006101000a81548173ffffffffffffffffffffffffffffffffffffffff021916908373ffffffffffffffffffffffffffffffffffffffff16021790555060608201518160020160146101000a81548160ff021916908360028111156103305761032f610cae565b5b02179055509050507f543247085674b00368d9cd41416be705a4c27143c024163a6f58bf12a41992f56000548360405161036b92919061121d565b60405180910390a15050565b80600160008473ffffffffffffffffffffffffffffffffffffffff1673ffffffffffffffffffffffffffffffffffffffff16815260200190815260200160002060006101000a81548160ff021916908360038111156103d9576103d8610cae565b5b02179055507f4ac36fa53f167ceb85964be512e01de2a3b8bdb9862f917da079deeeff689b38828260405161040f92919061124d565b60405180910390a15050565b600260205280600052604060002060009150905080600001549080600101805461044490610f6e565b80601f016020809104026020016040519081016040528092919081815260200182805461047090610f6e565b80156104bd5780601f10610492576101008083540402835291602001916104bd565b820191906000526020600020905b8154815290600101906020018083116104a057829003601f168201915b5050505050908060020160009054906101000a900473ffffffffffffffffffffffffffffffffffffffff16908060020160149054906101000a900460ff16905084565b60016020528060005260406000206000915054906101000a900460ff1681565b600280600381111561053557610534610cae565b5b600160003373ffffffffffffffffffffffffffffffffffffffff1673ffffffffffffffffffffffffffffffffffffffff16815260200190815260200160002060009054906101000a900460ff16600381111561059457610593610cae565b5b146105d4576040517f08c379a00000000000000000000000000000000000000000000000000000000081526004016105cb90610ea8565b60405180910390fd5b60006002600085815260200190815260200160002090503373ffffffffffffffffffffffffffffffffffffffff168160020160009054906101000a900473ffffffffffffffffffffffffffffffffffffffff1673ffffffffffffffffffffffffffffffffffffffff161461067d576040517f08c379a0000000000000000000000000000000000000000000000000000000008152600401610674906112c2565b60405180910390fd5b828160020160006101000a81548173ffffffffffffffffffffffffffffffffffffffff021916908373ffffffffffffffffffffffffffffffffffffffff16021790555060028160020160146101000a81548160ff021916908360028111156106e8576106e7610cae565b5b02179055507f0d9d3ad1299833596bec6138aae47314cbb71fb92c7582abed06e22840593ad4843385600260405161072394939291906112e2565b60405180910390a150505050565b60005481565b600180600381111561074c5761074b610cae565b5b600160003373ffffffffffffffffffffffffffffffffffffffff1673ffffffffffffffffffffffffffffffffffffffff16815260200190815260200160002060009054906101000a900460ff1660038111156107ab576107aa610cae565b5b146107eb576040517f08c379a00000000000000000000000000000000000000000000000000000000081526004016107e290610ea8565b60405180910390fd5b60006002600085815260200190815260200160002090503373ffffffffffffffffffffffffffffffffffffffff168160020160009054906101000a900473ffffffffffffffffffffffffffffffffffffffff1673ffffffffffffffffffffffffffffffffffffffff1614610894576040517f08c379a000000000000000000000000000000000000000000000000000000000815260040161088b906112c2565b60405180910390fd5b828160020160006101000a81548173ffffffffffffffffffffffffffffffffffffffff021916908373ffffffffffffffffffffffffffffffffffffffff16021790555060018160020160146101000a81548160ff021916908360028111156108ff576108fe610cae565b5b02179055507f0d9d3ad1299833596bec6138aae47314cbb71fb92c7582abed06e22840593ad4843385600160405161093a94939291906112e2565b60405180910390a150505050565b6000604051905090565b600080fd5b600080fd5b600080fd5b600080fd5b6000601f19601f8301169050919050565b7f4e487b7100000000000000000000000000000000000000000000000000000000600052604160045260246000fd5b6109af82610966565b810181811067ffffffffffffffff821117156109ce576109cd610977565b5b80604052505050565b60006109e1610948565b90506109ed82826109a6565b919050565b600067ffffffffffffffff821115610a0d57610a0c610977565b5b610a1682610966565b9050602081019050919050565b82818337600083830152505050565b6000610a45610a40846109f2565b6109d7565b905082815260208101848484011115610a6157610a60610961565b5b610a6c848285610a23565b509392505050565b600082601f830112610a8957610a8861095c565b5b8135610a99848260208601610a32565b91505092915050565b600060208284031215610ab857610ab7610952565b5b600082013567ffffffffffffffff811115610ad657610ad5610957565b5b610ae284828501610a74565b91505092915050565b600073ffffffffffffffffffffffffffffffffffffffff82169050919050565b6000610b1682610aeb565b9050919050565b610b2681610b0b565b8114610b3157600080fd5b50565b600081359050610b4381610b1d565b92915050565b60048110610b5657600080fd5b50565b600081359050610b6881610b49565b92915050565b60008060408385031215610b8557610b84610952565b5b6000610b9385828601610b34565b9250506020610ba485828601610b59565b9150509250929050565b6000819050919050565b610bc181610bae565b8114610bcc57600080fd5b50565b600081359050610bde81610bb8565b92915050565b600060208284031215610bfa57610bf9610952565b5b6000610c0884828501610bcf565b91505092915050565b610c1a81610bae565b82525050565b600081519050919050565b600082825260208201905092915050565b60005b83811015610c5a578082015181840152602081019050610c3f565b60008484015250505050565b6000610c7182610c20565b610c7b8185610c2b565b9350610c8b818560208601610c3c565b610c9481610966565b840191505092915050565b610ca881610b0b565b82525050565b7f4e487b7100000000000000000000000000000000000000000000000000000000600052602160045260246000fd5b60038110610cee57610ced610cae565b5b50565b6000819050610cff82610cdd565b919050565b6000610d0f82610cf1565b9050919050565b610d1f81610d04565b82525050565b6000608082019050610d3a6000830187610c11565b8181036020830152610d4c8186610c66565b9050610d5b6040830185610c9f565b610d686060830184610d16565b95945050505050565b600060208284031215610d8757610d86610952565b5b6000610d9584828501610b34565b91505092915050565b60048110610daf57610dae610cae565b5b50565b6000819050610dc082610d9e565b919050565b6000610dd082610db2565b9050919050565b610de081610dc5565b82525050565b6000602082019050610dfb6000830184610dd7565b92915050565b60008060408385031215610e1857610e17610952565b5b6000610e2685828601610bcf565b9250506020610e3785828601610b34565b9150509250929050565b6000602082019050610e566000830184610c11565b92915050565b7f4163636573732064656e69656400000000000000000000000000000000000000600082015250565b6000610e92600d83610c2b565b9150610e9d82610e5c565b602082019050919050565b60006020820190508181036000830152610ec181610e85565b9050919050565b7f4e487b7100000000000000000000000000000000000000000000000000000000600052601160045260246000fd5b6000610f0282610bae565b91507fffffffffffffffffffffffffffffffffffffffffffffffffffffffffffffffff8203610f3457610f33610ec8565b5b600182019050919050565b7f4e487b7100000000000000000000000000000000000000000000000000000000600052602260045260246000fd5b60006002820490506001821680610f8657607f821691505b602082108103610f9957610f98610f3f565b5b50919050565b60008190508160005260206000209050919050565b60006020601f8301049050919050565b600082821b905092915050565b6000600883026110017fffffffffffffffffffffffffffffffffffffffffffffffffffffffffffffffff82610fc4565b61100b8683610fc4565b95508019841693508086168417925050509392505050565b6000819050919050565b600061104861104361103e84610bae565b611023565b610bae565b9050919050565b6000819050919050565b6110628361102d565b61107661106e8261104f565b848454610fd1565b825550505050565b600090565b61108b61107e565b611096818484611059565b505050565b5b818110156110ba576110af600082611083565b60018101905061109c565b5050565b601f8211156110ff576110d081610f9f565b6110d984610fb4565b810160208510156110e8578190505b6110fc6110f485610fb4565b83018261109b565b50505b505050565b600082821c905092915050565b600061112260001984600802611104565b1980831691505092915050565b600061113b8383611111565b9150826002028217905092915050565b61115482610c20565b67ffffffffffffffff81111561116d5761116c610977565b5b6111778254610f6e565b6111828282856110be565b600060209050601f8311600181146111b557600084156111a3578287015190505b6111ad858261112f565b865550611215565b601f1984166111c386610f9f565b60005b828110156111eb578489015182556001820191506020850194506020810190506111c6565b868310156112085784890151611204601f891682611111565b8355505b6001600288020188555050505b505050505050565b60006040820190506112326000830185610c11565b81810360208301526112448184610c66565b90509392505050565b60006040820190506112626000830185610c9f565b61126f6020830184610dd7565b9392505050565b7f4e6f74206f776e65720000000000000000000000000000000000000000000000600082015250565b60006112ac600983610c2b565b91506112b782611276565b602082019050919050565b600060208201905081810360008301526112db8161129f565b9050919050565b60006080820190506112f76000830187610c11565b6113046020830186610c9f565b6113116040830185610c9f565b61131e6060830184610d16565b9594505050505056fea264697066735822122088c36dfb75d2e5d3e31fc249c25cbc89bde2f981db7e134a31adeb149320556464736f6c63430008140033",
  "linkReferences": {},
  "deployedLinkReferences": {}
}