{
  "_format": "hh-sol-artifact-1",
  "contractName": "SupplyChain",
  "sourceName": "contracts/SupplyChain.sol",
  "abi": [
    {
      "inputs": [],
      "stateMutability": "nonpayable",
      "type": "constructor"
    },
    {
      "anonymous": false,
      "inputs": [
        {
          "indexed": true,
          "internalType": "uint256",
          "name": "productId",
          "type": "uint256"
        },
        {
          "indexed": true,
          "internalType": "address",
          "name": "from",
          "type": "address"
        },
        {
          "indexed": true,
          "internalType": "address",
          "name": "to",
          "type": "address"
        },
        {
          "indexed": false,
          "internalType": "enum SupplyChain.Status",
          "name": "status",
          "type": "uint8"
        }
      ],
      "name": "OwnershipTransferred",
      "type": "event"
    },
    {
      "anonymous": false,
      "inputs": [
        {
          "indexed": true,
          "internalType": "uint256",
          "name": "productId",
          "type": "uint256"
        },
        {
          "indexed": false,
          "internalType": "string",
          "name": "name",
          "type": "string"
        },
        {
          "indexed": false,
          "internalType": "string",
          "name": "batchId",
          "type": "string"
        },
        {
          "indexed": true,
          "internalType": "address",
          "name": "manufacturer",
          "type": "address"
        }
      ],
      "name": "ProductCreated",
      "type": "event"
    },
    {
      "anonymous": false,
      "inputs": [
        {
          "indexed": true,
          "internalType": "address",
          "name": "user",
          "type": "address"
        },
        {
          "indexed": false,
          "internalType": "enum SupplyChain.Role",
          "name": "role",
          "type": "uint8"
        }
      ],
      "name": "RoleAssigned",
      "type": "event"
    },
    {
      "inputs": [],
      "name": "admin",
      "outputs": [
        {
          "internalType": "address",
          "name": "",
          "type": "address"
        }
      ],
      "stateMutability": "view",
      "type": "function"
    },
    {
      "inputs": [
        {
          "internalType": "address",
          "name": "_user",
          "type": "address"
        },
        {
          "internalType": "enum SupplyChain.Role",
          "name": "_role",
          "type": "uint8"
        }
      ],
      "name": "assignRole",
      "outputs": [],
      "stateMutability": "nonpayable",
      "type": "function"
    },
    {
      "inputs": [
        {
          "internalType": "string",
          "name": "_productName",
          "type": "string"
        },
        {
          "internalType": "string",
          "name": "_batchId",
          "type": "string"
        },
        {
          "internalType": "uint256",
          "name": "_quantity",
          "type": "uint256"
        },
        {
          "internalType": "string",
          "name": "_origin",
          "type": "string"
        },
        {
          "internalType": "uint256",
          "name": "_manufacturingDate",
          "type": "uint256"
        },
        {
          "internalType": "string",
          "name": "_qualityStandard",
          "type": "string"
        }
      ],
      "name": "createProduct",
      "outputs": [],
      "stateMutability": "nonpayable",
      "type": "function"
    },
    {
      "inputs": [
        {
          "internalType": "uint256",
          "name": "",
          "type": "uint256"
        }
      ],
      "name": "distributorData",
      "outputs": [
        {
          "internalType": "uint256",
          "name": "productId",
          "type": "uint256"
        },
        {
          "internalType": "uint256",
          "name": "temperature",
          "type": "uint256"
        },
        {
          "internalType": "uint256",
          "name": "humidity",
          "type": "uint256"
        },
        {
          "internalType": "string",
          "name": "location",
          "type": "string"
        },
        {
          "internalType": "string",
          "name": "transportationMode",
          "type": "string"
        },
        {
          "internalType": "uint256",
          "name": "expectedDeliveryDate",
          "type": "uint256"
        },
        {
          "internalType": "address",
          "name": "distributor",
          "type": "address"
        },
        {
          "internalType": "uint256",
          "name": "timestamp",
          "type": "uint256"
        }
      ],
      "stateMutability": "view",
      "type": "function"
    },
    {
      "inputs": [
        {
          "internalType": "uint256",
          "name": "_productId",
          "type": "uint256"
        }
      ],
      "name": "getDistributorData",
      "outputs": [
        {
          "components": [
            {
              "internalType": "uint256",
              "name": "productId",
              "type": "uint256"
            },
            {
              "internalType": "uint256",
              "name": "temperature",
              "type": "uint256"
            },
            {
              "internalType": "uint256",
              "name": "humidity",
              "type": "uint256"
            },
            {
              "internalType": "string",
              "name": "location",
              "type": "string"
            },
            {
              "internalType": "string",
              "name": "transportationMode",
              "type": "string"
            },
            {
              "internalType": "uint256",
              "name": "expectedDeliveryDate",
              "type": "uint256"
            },
            {
              "internalType": "address",
              "name": "distributor",
              "type": "address"
            },
            {
              "internalType": "uint256",
              "name": "timestamp",
              "type": "uint256"
            }
          ],
          "internalType": "struct SupplyChain.DistributorData",
          "name": "",
          "type": "tuple"
        }
      ],
      "stateMutability": "view",
      "type": "function"
    },
    {
      "inputs": [
        {
          "internalType": "uint256",
          "name": "_productId",
          "type": "uint256"
        }
      ],
      "name": "getManufacturerData",
      "outputs": [
        {
          "components": [
            {
              "internalType": "uint256",
              "name": "productId",
              "type": "uint256"
            },
            {
              "internalType": "string",
              "name": "productName",
              "type": "string"
            },
            {
              "internalType": "string",
              "name": "batchId",
              "type": "string"
            },
            {
              "internalType": "uint256",
              "name": "quantity",
              "type": "uint256"
            },
            {
              "internalType": "string",
              "name": "origin",
              "type": "string"
            },
            {
              "internalType": "uint256",
              "name": "manufacturingDate",
              "type": "uint256"
            },
            {
              "internalType": "string",
              "name": "qualityStandard",
              "type": "string"
            },
            {
              "internalType": "address",
              "name": "manufacturer",
              "type": "address"
            },
            {
              "internalType": "uint256",
              "name": "timestamp",
              "type": "uint256"
            }
          ],
          "internalType": "struct SupplyChain.ManufacturerData",
          "name": "",
          "type": "tuple"
        }
      ],
      "stateMutability": "view",
      "type": "function"
    },
    {
      "inputs": [
        {
          "internalType": "uint256",
          "name": "_productId",
          "type": "uint256"
        }
      ],
      "name": "getProductHistory",
      "outputs": [
        {
          "components": [
            {
              "internalType": "address",
              "name": "actor",
              "type": "address"
            },
            {
              "internalType": "enum SupplyChain.Status",
              "name": "status",
              "type": "uint8"
            },
            {
              "internalType": "uint256",
              "name": "timestamp",
              "type": "uint256"
            }
          ],
          "internalType": "struct SupplyChain.History[]",
          "name": "",
          "type": "tuple[]"
        }
      ],
      "stateMutability": "view",
      "type": "function"
    },
    {
      "inputs": [
        {
          "internalType": "uint256",
          "name": "_productId",
          "type": "uint256"
        }
      ],
      "name": "getRetailerData",
      "outputs": [
        {
          "components": [
            {
              "internalType": "uint256",
              "name": "productId",
              "type": "uint256"
            },
            {
              "internalType": "string",
              "name": "storageCondition",
              "type": "string"
            },
            {
              "internalType": "uint256",
              "name": "expiryDate",
              "type": "uint256"
            },
            {
              "internalType": "uint256",
              "name": "price",
              "type": "uint256"
            },
            {
              "internalType": "string",
              "name": "verificationNotes",
              "type": "string"
            },
            {
              "internalType": "address",
              "name": "retailer",
              "type": "address"
            },
            {
              "internalType": "uint256",
              "name": "timestamp",
              "type": "uint256"
            }
          ],
          "internalType": "struct SupplyChain.RetailerData",
          "name": "",
          "type": "tuple"
        }
      ],
      "stateMutability": "view",
      "type": "function"
    },
    {
      "inputs": [
        {
          "internalType": "uint256",
          "name": "",
          "type": "uint256"
        }
      ],
      "name": "manufacturerData",
      "outputs": [
        {
          "internalType": "uint256",
          "name": "productId",
          "type": "uint256"
        },
        {
          "internalType": "string",
          "name": "productName",
          "type": "string"
        },
        {
          "internalType": "string",
          "name": "batchId",
          "type": "string"
        },
        {
          "internalType": "uint256",
          "name": "quantity",
          "type": "uint256"
        },
        {
          "internalType": "string",
          "name": "origin",
          "type": "string"
        },
        {
          "internalType": "uint256",
          "name": "manufacturingDate",
          "type": "uint256"
        },
        {
          "internalType": "string",
          "name": "qualityStandard",
          "type": "string"
        },
        {
          "internalType": "address",
          "name": "manufacturer",
          "type": "address"
        },
        {
          "internalType": "uint256",
          "name": "timestamp",
          "type": "uint256"
        }
      ],
      "stateMutability": "view",
      "type": "function"
    },
    {
      "inputs": [],
      "name": "productCount",
      "outputs": [
        {
          "internalType": "uint256",
          "name": "",
          "type": "uint256"
        }
      ],
      "stateMutability": "view",
      "type": "function"
    },
    {
      "inputs": [
        {
          "internalType": "uint256",
          "name": "",
          "type": "uint256"
        },
        {
          "internalType": "uint256",
          "name": "",
          "type": "uint256"
        }
      ],
      "name": "productHistory",
      "outputs": [
        {
          "internalType": "address",
          "name": "actor",
          "type": "address"
        },
        {
          "internalType": "enum SupplyChain.Status",
          "name": "status",
          "type": "uint8"
        },
        {
          "internalType": "uint256",
          "name": "timestamp",
          "type": "uint256"
        }
      ],
      "stateMutability": "view",
      "type": "function"
    },
    {
      "inputs": [
        {
          "internalType": "uint256",
          "name": "",
          "type": "uint256"
        }
      ],
      "name": "products",
      "outputs": [
        {
          "internalType": "uint256",
          "name": "id",
          "type": "uint256"
        },
        {
          "internalType": "string",
          "name": "name",
          "type": "string"
        },
        {
          "internalType": "string",
          "name": "batchId",
          "type": "string"
        },
        {
          "internalType": "address",
          "name": "owner",
          "type": "address"
        },
        {
          "internalType": "enum SupplyChain.Status",
          "name": "status",
          "type": "uint8"
        },
        {
          "internalType": "uint256",
          "name": "createdAt",
          "type": "uint256"
        }
      ],
      "stateMutability": "view",
      "type": "function"
    },
    {
      "inputs": [
        {
          "internalType": "uint256",
          "name": "",
          "type": "uint256"
        }
      ],
      "name": "retailerData",
      "outputs": [
        {
          "internalType": "uint256",
          "name": "productId",
          "type": "uint256"
        },
        {
          "internalType": "string",
          "name": "storageCondition",
          "type": "string"
        },
        {
          "internalType": "uint256",
          "name": "expiryDate",
          "type": "uint256"
        },
        {
          "internalType": "uint256",
          "name": "price",
          "type": "uint256"
        },
        {
          "internalType": "string",
          "name": "verificationNotes",
          "type": "string"
        },
        {
          "internalType": "address",
          "name": "retailer",
          "type": "address"
        },
        {
          "internalType": "uint256",
          "name": "timestamp",
          "type": "uint256"
        }
      ],
      "stateMutability": "view",
      "type": "function"
    },
    {
      "inputs": [
        {
          "internalType": "address",
          "name": "",
          "type": "address"
        }
      ],
      "name": "roles",
      "outputs": [
        {
          "internalType": "enum SupplyChain.Role",
          "name": "",
          "type": "uint8"
        }
      ],
      "stateMutability": "view",
      "type": "function"
    },
    {
      "inputs": [
        {
          "internalType": "uint256",
          "name": "_productId",
          "type": "uint256"
        },
        {
          "internalType": "address",
          "name": "_distributor",
          "type": "address"
        },
        {
          "internalType": "uint256",
          "name": "_temperature",
          "type": "uint256"
        },
        {
          "internalType": "uint256",
          "name": "_humidity",
          "type": "uint256"
        },
        {
          "internalType": "string",
          "name": "_location",
          "type": "string"
        },
        {
          "internalType": "string",
          "name": "_transportationMode",
          "type": "string"
        },
        {
          "internalType": "uint256",
          "name": "_expectedDeliveryDate",
          "type": "uint256"
        }
      ],
      "name": "transferToDistributor",
      "outputs": [],
      "stateMutability": "nonpayable",
      "type": "function"
    },
    {
      "inputs": [
        {
          "internalType": "uint256",
          "name": "_productId",
          "type": "uint256"
        },
        {
          "internalType": "address",
          "name": "_retailer",
          "type": "address"
        },
        {
          "internalType": "string",
          "name": "_storageCondition",
          "type": "string"
        },
        {
          "internalType": "uint256",
          "name": "_expiryDate",
          "type": "uint256"
        },
        {
          "internalType": "uint256",
          "name": "_price",
          "type": "uint256"
        },
        {
          "internalType": "string",
          "name": "_verificationNotes",
          "type": "string"
        }
      ],
      "name": "transferToRetailer",
      "outputs": [],
      "stateMutability": "nonpayable",
      "type": "function"
    }
  ],
  "bytecode": "0x608060405234801561001057600080fd5b50336000806101000a81548173ffffffffffffffffffffffffffffffffffffffff021916908373ffffffffffffffffffffffffffffffffffffffff160217905550613780806100606000396000f3fe608060405234801561001057600080fd5b50600436106101005760003560e01c80639937464211610097578063c88e66f811610066578063c88e66f814610325578063da521c7514610341578063e0f6ef8714610371578063f851a4401461038f57610100565b80639937464214610257578063a88a2dfa14610287578063afef8c56146102bf578063b4fccdaa146102ef57610100565b806357a096a1116100d357806357a096a1146101ba578063630a195b146101ea5780637acc0b20146102065780638ef53a2e1461023b57610100565b8063045d9851146101055780631d48a5e4146101355780633a7d23761461016c57806356ac24c21461019e575b600080fd5b61011f600480360381019061011a919061241f565b6103ad565b60405161012c9190612606565b60405180910390f35b61014f600480360381019061014a919061241f565b6106a1565b604051610163989796959493929190612690565b60405180910390f35b6101866004803603810190610181919061271c565b610819565b604051610195939291906127d3565b60405180910390f35b6101b860048036038101906101b3919061293f565b61088d565b005b6101d460048036038101906101cf919061241f565b610d19565b6040516101e19190612b3c565b60405180910390f35b61020460048036038101906101ff9190612baf565b610e26565b005b610220600480360381019061021b919061241f565b610f6d565b60405161023296959493929190612bef565b60405180910390f35b61025560048036038101906102509190612c5e565b6110e6565b005b610271600480360381019061026c9190612d23565b6115d2565b60405161027e9190612d98565b60405180910390f35b6102a1600480360381019061029c919061241f565b6115f2565b6040516102b699989796959493929190612db3565b60405180910390f35b6102d960048036038101906102d4919061241f565b611880565b6040516102e69190612f13565b60405180910390f35b6103096004803603810190610304919061241f565b611a5a565b60405161031c9796959493929190612f35565b60405180910390f35b61033f600480360381019061033a9190612fb2565b611bcc565b005b61035b6004803603810190610356919061241f565b6120cc565b604051610368919061312f565b60405180910390f35b61037961229b565b6040516103869190613151565b60405180910390f35b6103976122a1565b6040516103a4919061316c565b60405180910390f35b6103b56122c5565b6005600083815260200190815260200160002060405180610120016040529081600082015481526020016001820180546103ee906131b6565b80601f016020809104026020016040519081016040528092919081815260200182805461041a906131b6565b80156104675780601f1061043c57610100808354040283529160200191610467565b820191906000526020600020905b81548152906001019060200180831161044a57829003601f168201915b50505050508152602001600282018054610480906131b6565b80601f01602080910402602001604051908101604052809291908181526020018280546104ac906131b6565b80156104f95780601f106104ce576101008083540402835291602001916104f9565b820191906000526020600020905b8154815290600101906020018083116104dc57829003601f168201915b505050505081526020016003820154815260200160048201805461051c906131b6565b80601f0160208091040260200160405190810160405280929190818152602001828054610548906131b6565b80156105955780601f1061056a57610100808354040283529160200191610595565b820191906000526020600020905b81548152906001019060200180831161057857829003601f168201915b50505050508152602001600582015481526020016006820180546105b8906131b6565b80601f01602080910402602001604051908101604052809291908181526020018280546105e4906131b6565b80156106315780601f1061060657610100808354040283529160200191610631565b820191906000526020600020905b81548152906001019060200180831161061457829003601f168201915b505050505081526020016007820160009054906101000a900473ffffffffffffffffffffffffffffffffffffffff1673ffffffffffffffffffffffffffffffffffffffff1673ffffffffffffffffffffffffffffffffffffffff1681526020016008820154815250509050919050565b60066020528060005260406000206000915090508060000154908060010154908060020154908060030180546106d6906131b6565b80601f0160208091040260200160405190810160405280929190818152602001828054610702906131b6565b801561074f5780601f106107245761010080835404028352916020019161074f565b820191906000526020600020905b81548152906001019060200180831161073257829003601f168201915b505050505090806004018054610764906131b6565b80601f0160208091040260200160405190810160405280929190818152602001828054610790906131b6565b80156107dd5780601f106107b2576101008083540402835291602001916107dd565b820191906000526020600020905b8154815290600101906020018083116107c057829003601f168201915b5050505050908060050154908060060160009054906101000a900473ffffffffffffffffffffffffffffffffffffffff16908060070154905088565b6004602052816000526040600020818154811061083557600080fd5b9060005260206000209060020201600091509150508060000160009054906101000a900473ffffffffffffffffffffffffffffffffffffffff16908060000160149054906101000a900460ff16908060010154905083565b60018060038111156108a2576108a161275c565b5b600260003373ffffffffffffffffffffffffffffffffffffffff1673ffffffffffffffffffffffffffffffffffffffff16815260200190815260200160002060009054906101000a900460ff1660038111156109015761090061275c565b5b14610941576040517f08c379a000000000000000000000000000000000000000000000000000000000815260040161093890613233565b60405180910390fd5b6001600081548092919061095490613282565b91905055506040518060c0016040528060015481526020018881526020018781526020013373ffffffffffffffffffffffffffffffffffffffff168152602001600060028111156109a8576109a761275c565b5b8152602001428152506003600060015481526020019081526020016000206000820151816000015560208201518160010190816109e59190613476565b5060408201518160020190816109fb9190613476565b5060608201518160030160006101000a81548173ffffffffffffffffffffffffffffffffffffffff021916908373ffffffffffffffffffffffffffffffffffffffff16021790555060808201518160030160146101000a81548160ff02191690836002811115610a6e57610a6d61275c565b5b021790555060a0820151816004015590505060405180610120016040528060015481526020018881526020018781526020018681526020018581526020018481526020018381526020013373ffffffffffffffffffffffffffffffffffffffff16815260200142815250600560006001548152602001908152602001600020600082015181600001556020820151816001019081610b0c9190613476565b506040820151816002019081610b229190613476565b50606082015181600301556080820151816004019081610b429190613476565b5060a0820151816005015560c0820151816006019081610b629190613476565b5060e08201518160070160006101000a81548173ffffffffffffffffffffffffffffffffffffffff021916908373ffffffffffffffffffffffffffffffffffffffff160217905550610100820151816008015590505060046000600154815260200190815260200160002060405180606001604052803373ffffffffffffffffffffffffffffffffffffffff16815260200160006002811115610c0857610c0761275c565b5b815260200142815250908060018154018082558091505060019003906000526020600020906002020160009091909190915060008201518160000160006101000a81548173ffffffffffffffffffffffffffffffffffffffff021916908373ffffffffffffffffffffffffffffffffffffffff16021790555060208201518160000160146101000a81548160ff02191690836002811115610cac57610cab61275c565b5b02179055506040820151816001015550503373ffffffffffffffffffffffffffffffffffffffff166001547f5f1912a9c5f8a881e905d410b7f74013932df43b5dec69d074d965f102e19af88989604051610d08929190613548565b60405180910390a350505050505050565b606060046000838152602001908152602001600020805480602002602001604051908101604052809291908181526020016000905b82821015610e1b57838290600052602060002090600202016040518060600160405290816000820160009054906101000a900473ffffffffffffffffffffffffffffffffffffffff1673ffffffffffffffffffffffffffffffffffffffff1673ffffffffffffffffffffffffffffffffffffffff1681526020016000820160149054906101000a900460ff166002811115610dec57610deb61275c565b5b6002811115610dfe57610dfd61275c565b5b815260200160018201548152505081526020019060010190610d4e565b505050509050919050565b60008054906101000a900473ffffffffffffffffffffffffffffffffffffffff1673ffffffffffffffffffffffffffffffffffffffff163373ffffffffffffffffffffffffffffffffffffffff1614610eb4576040517f08c379a0000000000000000000000000000000000000000000000000000000008152600401610eab906135cb565b60405180910390fd5b80600260008473ffffffffffffffffffffffffffffffffffffffff1673ffffffffffffffffffffffffffffffffffffffff16815260200190815260200160002060006101000a81548160ff02191690836003811115610f1657610f1561275c565b5b02179055508173ffffffffffffffffffffffffffffffffffffffff167f4ac36fa53f167ceb85964be512e01de2a3b8bdb9862f917da079deeeff689b3882604051610f619190612d98565b60405180910390a25050565b6003602052806000526040600020600091509050806000015490806001018054610f96906131b6565b80601f0160208091040260200160405190810160405280929190818152602001828054610fc2906131b6565b801561100f5780601f10610fe45761010080835404028352916020019161100f565b820191906000526020600020905b815481529060010190602001808311610ff257829003601f168201915b505050505090806002018054611024906131b6565b80601f0160208091040260200160405190810160405280929190818152602001828054611050906131b6565b801561109d5780601f106110725761010080835404028352916020019161109d565b820191906000526020600020905b81548152906001019060200180831161108057829003601f168201915b5050505050908060030160009054906101000a900473ffffffffffffffffffffffffffffffffffffffff16908060030160149054906101000a900460ff16908060040154905086565b60028060038111156110fb576110fa61275c565b5b600260003373ffffffffffffffffffffffffffffffffffffffff1673ffffffffffffffffffffffffffffffffffffffff16815260200190815260200160002060009054906101000a900460ff16600381111561115a5761115961275c565b5b1461119a576040517f08c379a000000000000000000000000000000000000000000000000000000000815260040161119190613233565b60405180910390fd5b60006003600089815260200190815260200160002090503373ffffffffffffffffffffffffffffffffffffffff168160030160009054906101000a900473ffffffffffffffffffffffffffffffffffffffff1673ffffffffffffffffffffffffffffffffffffffff1614611243576040517f08c379a000000000000000000000000000000000000000000000000000000000815260040161123a90613637565b60405180910390fd5b6003808111156112565761125561275c565b5b600260008973ffffffffffffffffffffffffffffffffffffffff1673ffffffffffffffffffffffffffffffffffffffff16815260200190815260200160002060009054906101000a900460ff1660038111156112b5576112b461275c565b5b146112f5576040517f08c379a00000000000000000000000000000000000000000000000000000000081526004016112ec906136a3565b60405180910390fd5b868160030160006101000a81548173ffffffffffffffffffffffffffffffffffffffff021916908373ffffffffffffffffffffffffffffffffffffffff16021790555060028160030160146101000a81548160ff021916908360028111156113605761135f61275c565b5b02179055506040518060e001604052808981526020018781526020018681526020018581526020018481526020018873ffffffffffffffffffffffffffffffffffffffff16815260200142815250600760008a81526020019081526020016000206000820151816000015560208201518160010190816113e09190613476565b506040820151816002015560608201518160030155608082015181600401908161140a9190613476565b5060a08201518160050160006101000a81548173ffffffffffffffffffffffffffffffffffffffff021916908373ffffffffffffffffffffffffffffffffffffffff16021790555060c082015181600601559050506004600089815260200190815260200160002060405180606001604052803373ffffffffffffffffffffffffffffffffffffffff1681526020016002808111156114ac576114ab61275c565b5b815260200142815250908060018154018082558091505060019003906000526020600020906002020160009091909190915060008201518160000160006101000a81548173ffffffffffffffffffffffffffffffffffffffff021916908373ffffffffffffffffffffffffffffffffffffffff16021790555060208201518160000160146101000a81548160ff021916908360028111156115505761154f61275c565b5b02179055506040820151816001015550508673ffffffffffffffffffffffffffffffffffffffff163373ffffffffffffffffffffffffffffffffffffffff16897f0d9d3ad1299833596bec6138aae47314cbb71fb92c7582abed06e22840593ad460026040516115c091906136c3565b60405180910390a45050505050505050565b60026020528060005260406000206000915054906101000a900460ff1681565b600560205280600052604060002060009150905080600001549080600101805461161b906131b6565b80601f0160208091040260200160405190810160405280929190818152602001828054611647906131b6565b80156116945780601f1061166957610100808354040283529160200191611694565b820191906000526020600020905b81548152906001019060200180831161167757829003601f168201915b5050505050908060020180546116a9906131b6565b80601f01602080910402602001604051908101604052809291908181526020018280546116d5906131b6565b80156117225780601f106116f757610100808354040283529160200191611722565b820191906000526020600020905b81548152906001019060200180831161170557829003601f168201915b50505050509080600301549080600401805461173d906131b6565b80601f0160208091040260200160405190810160405280929190818152602001828054611769906131b6565b80156117b65780601f1061178b576101008083540402835291602001916117b6565b820191906000526020600020905b81548152906001019060200180831161179957829003601f168201915b5050505050908060050154908060060180546117d1906131b6565b80601f01602080910402602001604051908101604052809291908181526020018280546117fd906131b6565b801561184a5780601f1061181f5761010080835404028352916020019161184a565b820191906000526020600020905b81548152906001019060200180831161182d57829003601f168201915b5050505050908060070160009054906101000a900473ffffffffffffffffffffffffffffffffffffffff16908060080154905089565b611888612327565b60066000838152602001908152602001600020604051806101000160405290816000820154815260200160018201548152602001600282015481526020016003820180546118d5906131b6565b80601f0160208091040260200160405190810160405280929190818152602001828054611901906131b6565b801561194e5780601f106119235761010080835404028352916020019161194e565b820191906000526020600020905b81548152906001019060200180831161193157829003601f168201915b50505050508152602001600482018054611967906131b6565b80601f0160208091040260200160405190810160405280929190818152602001828054611993906131b6565b80156119e05780601f106119b5576101008083540402835291602001916119e0565b820191906000526020600020905b8154815290600101906020018083116119c357829003601f168201915b50505050508152602001600582015481526020016006820160009054906101000a900473ffffffffffffffffffffffffffffffffffffffff1673ffffffffffffffffffffffffffffffffffffffff1673ffffffffffffffffffffffffffffffffffffffff1681526020016007820154815250509050919050565b6007602052806000526040600020600091509050806000015490806001018054611a83906131b6565b80601f0160208091040260200160405190810160405280929190818152602001828054611aaf906131b6565b8015611afc5780601f10611ad157610100808354040283529160200191611afc565b820191906000526020600020905b815481529060010190602001808311611adf57829003601f168201915b505050505090806002015490806003015490806004018054611b1d906131b6565b80601f0160208091040260200160405190810160405280929190818152602001828054611b49906131b6565b8015611b965780601f10611b6b57610100808354040283529160200191611b96565b820191906000526020600020905b815481529060010190602001808311611b7957829003601f168201915b5050505050908060050160009054906101000a900473ffffffffffffffffffffffffffffffffffffffff16908060060154905087565b6001806003811115611be157611be061275c565b5b600260003373ffffffffffffffffffffffffffffffffffffffff1673ffffffffffffffffffffffffffffffffffffffff16815260200190815260200160002060009054906101000a900460ff166003811115611c4057611c3f61275c565b5b14611c80576040517f08c379a0000000000000000000000000000000000000000000000000000000008152600401611c7790613233565b60405180910390fd5b6000600360008a815260200190815260200160002090503373ffffffffffffffffffffffffffffffffffffffff168160030160009054906101000a900473ffffffffffffffffffffffffffffffffffffffff1673ffffffffffffffffffffffffffffffffffffffff1614611d29576040517f08c379a0000000000000000000000000000000000000000000000000000000008152600401611d2090613637565b60405180910390fd5b60026003811115611d3d57611d3c61275c565b5b600260008a73ffffffffffffffffffffffffffffffffffffffff1673ffffffffffffffffffffffffffffffffffffffff16815260200190815260200160002060009054906101000a900460ff166003811115611d9c57611d9b61275c565b5b14611ddc576040517f08c379a0000000000000000000000000000000000000000000000000000000008152600401611dd39061372a565b60405180910390fd5b878160030160006101000a81548173ffffffffffffffffffffffffffffffffffffffff021916908373ffffffffffffffffffffffffffffffffffffffff16021790555060018160030160146101000a81548160ff02191690836002811115611e4757611e4661275c565b5b02179055506040518061010001604052808a81526020018881526020018781526020018681526020018581526020018481526020018973ffffffffffffffffffffffffffffffffffffffff16815260200142815250600660008b81526020019081526020016000206000820151816000015560208201518160010155604082015181600201556060820151816003019081611ee29190613476565b506080820151816004019081611ef89190613476565b5060a0820151816005015560c08201518160060160006101000a81548173ffffffffffffffffffffffffffffffffffffffff021916908373ffffffffffffffffffffffffffffffffffffffff16021790555060e08201518160070155905050600460008a815260200190815260200160002060405180606001604052803373ffffffffffffffffffffffffffffffffffffffff16815260200160016002811115611fa557611fa461275c565b5b815260200142815250908060018154018082558091505060019003906000526020600020906002020160009091909190915060008201518160000160006101000a81548173ffffffffffffffffffffffffffffffffffffffff021916908373ffffffffffffffffffffffffffffffffffffffff16021790555060208201518160000160146101000a81548160ff021916908360028111156120495761204861275c565b5b02179055506040820151816001015550508773ffffffffffffffffffffffffffffffffffffffff163373ffffffffffffffffffffffffffffffffffffffff168a7f0d9d3ad1299833596bec6138aae47314cbb71fb92c7582abed06e22840593ad460016040516120b991906136c3565b60405180910390a4505050505050505050565b6120d4612382565b600760008381526020019081526020016000206040518060e00160405290816000820154815260200160018201805461210c906131b6565b80601f0160208091040260200160405190810160405280929190818152602001828054612138906131b6565b80156121855780601f1061215a57610100808354040283529160200191612185565b820191906000526020600020905b81548152906001019060200180831161216857829003601f168201915b5050505050815260200160028201548152602001600382015481526020016004820180546121b2906131b6565b80601f01602080910402602001604051908101604052809291908181526020018280546121de906131b6565b801561222b5780601f106122005761010080835404028352916020019161222b565b820191906000526020600020905b81548152906001019060200180831161220e57829003601f168201915b505050505081526020016005820160009054906101000a900473ffffffffffffffffffffffffffffffffffffffff1673ffffffffffffffffffffffffffffffffffffffff1673ffffffffffffffffffffffffffffffffffffffff1681526020016006820154815250509050919050565b60015481565b60008054906101000a900473ffffffffffffffffffffffffffffffffffffffff1681565b60405180610120016040528060008152602001606081526020016060815260200160008152602001606081526020016000815260200160608152602001600073ffffffffffffffffffffffffffffffffffffffff168152602001600081525090565b604051806101000160405280600081526020016000815260200160008152602001606081526020016060815260200160008152602001600073ffffffffffffffffffffffffffffffffffffffff168152602001600081525090565b6040518060e001604052806000815260200160608152602001600081526020016000815260200160608152602001600073ffffffffffffffffffffffffffffffffffffffff168152602001600081525090565b6000604051905090565b600080fd5b600080fd5b6000819050919050565b6123fc816123e9565b811461240757600080fd5b50565b600081359050612419816123f3565b92915050565b600060208284031215612435576124346123df565b5b60006124438482850161240a565b91505092915050565b612455816123e9565b82525050565b600081519050919050565b600082825260208201905092915050565b60005b8381101561249557808201518184015260208101905061247a565b60008484015250505050565b6000601f19601f8301169050919050565b60006124bd8261245b565b6124c78185612466565b93506124d7818560208601612477565b6124e0816124a1565b840191505092915050565b600073ffffffffffffffffffffffffffffffffffffffff82169050919050565b6000612516826124eb565b9050919050565b6125268161250b565b82525050565b600061012083016000830151612545600086018261244c565b506020830151848203602086015261255d82826124b2565b9150506040830151848203604086015261257782826124b2565b915050606083015161258c606086018261244c565b50608083015184820360808601526125a482826124b2565b91505060a08301516125b960a086018261244c565b5060c083015184820360c08601526125d182826124b2565b91505060e08301516125e660e086018261251d565b506101008301516125fb61010086018261244c565b508091505092915050565b60006020820190508181036000830152612620818461252c565b905092915050565b612631816123e9565b82525050565b600082825260208201905092915050565b60006126538261245b565b61265d8185612637565b935061266d818560208601612477565b612676816124a1565b840191505092915050565b61268a8161250b565b82525050565b6000610100820190506126a6600083018b612628565b6126b3602083018a612628565b6126c06040830189612628565b81810360608301526126d28188612648565b905081810360808301526126e68187612648565b90506126f560a0830186612628565b61270260c0830185612681565b61270f60e0830184612628565b9998505050505050505050565b60008060408385031215612733576127326123df565b5b60006127418582860161240a565b92505060206127528582860161240a565b9150509250929050565b7f4e487b7100000000000000000000000000000000000000000000000000000000600052602160045260246000fd5b6003811061279c5761279b61275c565b5b50565b60008190506127ad8261278b565b919050565b60006127bd8261279f565b9050919050565b6127cd816127b2565b82525050565b60006060820190506127e86000830186612681565b6127f560208301856127c4565b6128026040830184612628565b949350505050565b600080fd5b600080fd5b7f4e487b7100000000000000000000000000000000000000000000000000000000600052604160045260246000fd5b61284c826124a1565b810181811067ffffffffffffffff8211171561286b5761286a612814565b5b80604052505050565b600061287e6123d5565b905061288a8282612843565b919050565b600067ffffffffffffffff8211156128aa576128a9612814565b5b6128b3826124a1565b9050602081019050919050565b82818337600083830152505050565b60006128e26128dd8461288f565b612874565b9050828152602081018484840111156128fe576128fd61280f565b5b6129098482856128c0565b509392505050565b600082601f8301126129265761292561280a565b5b81356129368482602086016128cf565b91505092915050565b60008060008060008060c0878903121561295c5761295b6123df565b5b600087013567ffffffffffffffff81111561297a576129796123e4565b5b61298689828a01612911565b965050602087013567ffffffffffffffff8111156129a7576129a66123e4565b5b6129b389828a01612911565b95505060406129c489828a0161240a565b945050606087013567ffffffffffffffff8111156129e5576129e46123e4565b5b6129f189828a01612911565b9350506080612a0289828a0161240a565b92505060a087013567ffffffffffffffff811115612a2357612a226123e4565b5b612a2f89828a01612911565b9150509295509295509295565b600081519050919050565b600082825260208201905092915050565b6000819050602082019050919050565b612a71816127b2565b82525050565b606082016000820151612a8d600085018261251d565b506020820151612aa06020850182612a68565b506040820151612ab3604085018261244c565b50505050565b6000612ac58383612a77565b60608301905092915050565b6000602082019050919050565b6000612ae982612a3c565b612af38185612a47565b9350612afe83612a58565b8060005b83811015612b2f578151612b168882612ab9565b9750612b2183612ad1565b925050600181019050612b02565b5085935050505092915050565b60006020820190508181036000830152612b568184612ade565b905092915050565b612b678161250b565b8114612b7257600080fd5b50565b600081359050612b8481612b5e565b92915050565b60048110612b9757600080fd5b50565b600081359050612ba981612b8a565b92915050565b60008060408385031215612bc657612bc56123df565b5b6000612bd485828601612b75565b9250506020612be585828601612b9a565b9150509250929050565b600060c082019050612c046000830189612628565b8181036020830152612c168188612648565b90508181036040830152612c2a8187612648565b9050612c396060830186612681565b612c4660808301856127c4565b612c5360a0830184612628565b979650505050505050565b60008060008060008060c08789031215612c7b57612c7a6123df565b5b6000612c8989828a0161240a565b9650506020612c9a89828a01612b75565b955050604087013567ffffffffffffffff811115612cbb57612cba6123e4565b5b612cc789828a01612911565b9450506060612cd889828a0161240a565b9350506080612ce989828a0161240a565b92505060a087013567ffffffffffffffff811115612d0a57612d096123e4565b5b612d1689828a01612911565b9150509295509295509295565b600060208284031215612d3957612d386123df565b5b6000612d4784828501612b75565b91505092915050565b60048110612d6157612d6061275c565b5b50565b6000819050612d7282612d50565b919050565b6000612d8282612d64565b9050919050565b612d9281612d77565b82525050565b6000602082019050612dad6000830184612d89565b92915050565b600061012082019050612dc9600083018c612628565b8181036020830152612ddb818b612648565b90508181036040830152612def818a612648565b9050612dfe6060830189612628565b8181036080830152612e108188612648565b9050612e1f60a0830187612628565b81810360c0830152612e318186612648565b9050612e4060e0830185612681565b612e4e610100830184612628565b9a9950505050505050505050565b600061010083016000830151612e75600086018261244c565b506020830151612e88602086018261244c565b506040830151612e9b604086018261244c565b5060608301518482036060860152612eb382826124b2565b91505060808301518482036080860152612ecd82826124b2565b91505060a0830151612ee260a086018261244c565b5060c0830151612ef560c086018261251d565b5060e0830151612f0860e086018261244c565b508091505092915050565b60006020820190508181036000830152612f2d8184612e5c565b905092915050565b600060e082019050612f4a600083018a612628565b8181036020830152612f5c8189612648565b9050612f6b6040830188612628565b612f786060830187612628565b8181036080830152612f8a8186612648565b9050612f9960a0830185612681565b612fa660c0830184612628565b98975050505050505050565b600080600080600080600060e0888a031215612fd157612fd06123df565b5b6000612fdf8a828b0161240a565b9750506020612ff08a828b01612b75565b96505060406130018a828b0161240a565b95505060606130128a828b0161240a565b945050608088013567ffffffffffffffff811115613033576130326123e4565b5b61303f8a828b01612911565b93505060a088013567ffffffffffffffff8111156130605761305f6123e4565b5b61306c8a828b01612911565b92505060c061307d8a828b0161240a565b91505092959891949750929550565b600060e0830160008301516130a4600086018261244c565b50602083015184820360208601526130bc82826124b2565b91505060408301516130d1604086018261244c565b5060608301516130e4606086018261244c565b50608083015184820360808601526130fc82826124b2565b91505060a083015161311160a086018261251d565b5060c083015161312460c086018261244c565b508091505092915050565b60006020820190508181036000830152613149818461308c565b905092915050565b60006020820190506131666000830184612628565b92915050565b60006020820190506131816000830184612681565b92915050565b7f4e487b7100000000000000000000000000000000000000000000000000000000600052602260045260246000fd5b600060028204905060018216806131ce57607f821691505b6020821081036131e1576131e0613187565b5b50919050565b7f4163636573732064656e69656400000000000000000000000000000000000000600082015250565b600061321d600d83612637565b9150613228826131e7565b602082019050919050565b6000602082019050818103600083015261324c81613210565b9050919050565b7f4e487b7100000000000000000000000000000000000000000000000000000000600052601160045260246000fd5b600061328d826123e9565b91507fffffffffffffffffffffffffffffffffffffffffffffffffffffffffffffffff82036132bf576132be613253565b5b600182019050919050565b60008190508160005260206000209050919050565b60006020601f8301049050919050565b600082821b905092915050565b60006008830261332c7fffffffffffffffffffffffffffffffffffffffffffffffffffffffffffffffff826132ef565b61333686836132ef565b95508019841693508086168417925050509392505050565b6000819050919050565b600061337361336e613369846123e9565b61334e565b6123e9565b9050919050565b6000819050919050565b61338d83613358565b6133a16133998261337a565b8484546132fc565b825550505050565b600090565b6133b66133a9565b6133c1818484613384565b505050565b5b818110156133e5576133da6000826133ae565b6001810190506133c7565b5050565b601f82111561342a576133fb816132ca565b613404846132df565b81016020851015613413578190505b61342761341f856132df565b8301826133c6565b50505b505050565b600082821c905092915050565b600061344d6000198460080261342f565b1980831691505092915050565b6000613466838361343c565b9150826002028217905092915050565b61347f8261245b565b67ffffffffffffffff81111561349857613497612814565b5b6134a282546131b6565b6134ad8282856133e9565b600060209050601f8311600181146134e057600084156134ce578287015190505b6134d8858261345a565b865550613540565b601f1984166134ee866132ca565b60005b82811015613516578489015182556001820191506020850194506020810190506134f1565b86831015613533578489015161352f601f89168261343c565b8355505b6001600288020188555050505b505050505050565b600060408201905081810360008301526135628185612648565b905081810360208301526135768184612648565b90509392505050565b7f4f6e6c792061646d696e20616c6c6f7765640000000000000000000000000000600082015250565b60006135b5601283612637565b91506135c08261357f565b602082019050919050565b600060208201905081810360008301526135e4816135a8565b9050919050565b7f4e6f742070726f64756374206f776e6572000000000000000000000000000000600082015250565b6000613621601183612637565b915061362c826135eb565b602082019050919050565b6000602082019050818103600083015261365081613614565b9050919050565b7f5265636569766572206e6f742072657461696c65720000000000000000000000600082015250565b600061368d601583612637565b915061369882613657565b602082019050919050565b600060208201905081810360008301526136bc81613680565b9050919050565b60006020820190506136d860008301846127c4565b92915050565b7f5265636569766572206e6f74206469737472696275746f720000000000000000600082015250565b6000613714601883612637565b915061371f826136de565b602082019050919050565b6000602082019050818103600083015261374381613707565b905091905056fea2646970667358221220b0c34b9fb986aa04b8fc9788620dcb4c73c4ac594981181f48d6ba95a758314464736f6c63430008140033",
  "linkReferences": {},
  "deployedLinkReferences": {}
}