{
  "_format": "hh-sol-artifact-1",
  "contractName": "SupplyChain",
  "sourceName": "contracts/SupplyChain.sol",
  "abi": [
    {
      "inputs": [],
      "stateMutability": "nonpayable",
      "type": "constructor"
    },
    {
      "anonymous": false,
      "inputs": [
        {
          "indexed": true,
          "internalType": "uint256",
          "name": "productId",
          "type": "uint256"
        },
        {
          "indexed": true,
          "internalType": "address",
          "name": "from",
          "type": "address"
        },
        {
          "indexed": true,
          "internalType": "address",
          "name": "to",
          "type": "address"
        },
        {
          "indexed": false,
          "internalType": "enum SupplyChain.Status",
          "name": "status",
          "type": "uint8"
        }
      ],
      "name": "OwnershipTransferred",
      "type": "event"
    },
    {
      "anonymous": false,
      "inputs": [
        {
          "indexed": true,
          "internalType": "uint256",
          "name": "productId",
          "type": "uint256"
        },
        {
          "indexed": false,
          "internalType": "string",
          "name": "name",
          "type": "string"
        },
        {
          "indexed": false,
          "internalType": "string",
          "name": "batchId",
          "type": "string"
        },
        {
          "indexed": true,
          "internalType": "address",
          "name": "manufacturer",
          "type": "address"
        }
      ],
      "name": "ProductCreated",
      "type": "event"
    },
    {
      "anonymous": false,
      "inputs": [
        {
          "indexed": true,
          "internalType": "address",
          "name": "user",
          "type": "address"
        },
        {
          "indexed": false,
          "internalType": "enum SupplyChain.Role",
          "name": "role",
          "type": "uint8"
        }
      ],
      "name": "RoleAssigned",
      "type": "event"
    },
    {
      "inputs": [],
      "name": "admin",
      "outputs": [
        {
          "internalType": "address",
          "name": "",
          "type": "address"
        }
      ],
      "stateMutability": "view",
      "type": "function"
    },
    {
      "inputs": [
        {
          "internalType": "address",
          "name": "_user",
          "type": "address"
        },
        {
          "internalType": "enum SupplyChain.Role",
          "name": "_role",
          "type": "uint8"
        }
      ],
      "name": "assignRole",
      "outputs": [],
      "stateMutability": "nonpayable",
      "type": "function"
    },
    {
      "inputs": [
        {
          "internalType": "string",
          "name": "_productName",
          "type": "string"
        },
        {
          "internalType": "string",
          "name": "_batchId",
          "type": "string"
        },
        {
          "internalType": "uint256",
          "name": "_quantity",
          "type": "uint256"
        },
        {
          "internalType": "string",
          "name": "_origin",
          "type": "string"
        },
        {
          "internalType": "uint256",
          "name": "_manufacturingDate",
          "type": "uint256"
        },
        {
          "internalType": "string",
          "name": "_qualityStandard",
          "type": "string"
        }
      ],
      "name": "createProduct",
      "outputs": [],
      "stateMutability": "nonpayable",
      "type": "function"
    },
    {
      "inputs": [
        {
          "internalType": "uint256",
          "name": "",
          "type": "uint256"
        }
      ],
      "name": "distributorData",
      "outputs": [
        {
          "internalType": "uint256",
          "name": "productId",
          "type": "uint256"
        },
        {
          "internalType": "uint256",
          "name": "temperature",
          "type": "uint256"
        },
        {
          "internalType": "uint256",
          "name": "humidity",
          "type": "uint256"
        },
        {
          "internalType": "string",
          "name": "location",
          "type": "string"
        },
        {
          "internalType": "string",
          "name": "transportationMode",
          "type": "string"
        },
        {
          "internalType": "uint256",
          "name": "expectedDeliveryDate",
          "type": "uint256"
        },
        {
          "internalType": "address",
          "name": "distributor",
          "type": "address"
        },
        {
          "internalType": "uint256",
          "name": "timestamp",
          "type": "uint256"
        }
      ],
      "stateMutability": "view",
      "type": "function"
    },
    {
      "inputs": [
        {
          "internalType": "uint256",
          "name": "_productId",
          "type": "uint256"
        }
      ],
      "name": "getDistributorData",
      "outputs": [
        {
          "components": [
            {
              "internalType": "uint256",
              "name": "productId",
              "type": "uint256"
            },
            {
              "internalType": "uint256",
              "name": "temperature",
              "type": "uint256"
            },
            {
              "internalType": "uint256",
              "name": "humidity",
              "type": "uint256"
            },
            {
              "internalType": "string",
              "name": "location",
              "type": "string"
            },
            {
              "internalType": "string",
              "name": "transportationMode",
              "type": "string"
            },
            {
              "internalType": "uint256",
              "name": "expectedDeliveryDate",
              "type": "uint256"
            },
            {
              "internalType": "address",
              "name": "distributor",
              "type": "address"
            },
            {
              "internalType": "uint256",
              "name": "timestamp",
              "type": "uint256"
            }
          ],
          "internalType": "struct SupplyChain.DistributorData",
          "name": "",
          "type": "tuple"
        }
      ],
      "stateMutability": "view",
      "type": "function"
    },
    {
      "inputs": [
        {
          "internalType": "uint256",
          "name": "_productId",
          "type": "uint256"
        }
      ],
      "name": "getManufacturerData",
      "outputs": [
        {
          "components": [
            {
              "internalType": "uint256",
              "name": "productId",
              "type": "uint256"
            },
            {
              "internalType": "string",
              "name": "productName",
              "type": "string"
            },
            {
              "internalType": "string",
              "name": "batchId",
              "type": "string"
            },
            {
              "internalType": "uint256",
              "name": "quantity",
              "type": "uint256"
            },
            {
              "internalType": "string",
              "name": "origin",
              "type": "string"
            },
            {
              "internalType": "uint256",
              "name": "manufacturingDate",
              "type": "uint256"
            },
            {
              "internalType": "string",
              "name": "qualityStandard",
              "type": "string"
            },
            {
              "internalType": "address",
              "name": "manufacturer",
              "type": "address"
            },
            {
              "internalType": "uint256",
              "name": "timestamp",
              "type": "uint256"
            }
          ],
          "internalType": "struct SupplyChain.ManufacturerData",
          "name": "",
          "type": "tuple"
        }
      ],
      "stateMutability": "view",
      "type": "function"
    },
    {
      "inputs": [
        {
          "internalType": "uint256",
          "name": "_productId",
          "type": "uint256"
        }
      ],
      "name": "getProductHistory",
      "outputs": [
        {
          "components": [
            {
              "internalType": "address",
              "name": "actor",
              "type": "address"
            },
            {
              "internalType": "enum SupplyChain.Status",
              "name": "status",
              "type": "uint8"
            },
            {
              "internalType": "uint256",
              "name": "timestamp",
              "type": "uint256"
            }
          ],
          "internalType": "struct SupplyChain.History[]",
          "name": "",
          "type": "tuple[]"
        }
      ],
      "stateMutability": "view",
      "type": "function"
    },
    {
      "inputs": [
        {
          "internalType": "uint256",
          "name": "_productId",
          "type": "uint256"
        }
      ],
      "name": "getRetailerData",
      "outputs": [
        {
          "components": [
            {
              "internalType": "uint256",
              "name": "productId",
              "type": "uint256"
            },
            {
              "internalType": "string",
              "name": "storageCondition",
              "type": "string"
            },
            {
              "internalType": "uint256",
              "name": "expiryDate",
              "type": "uint256"
            },
            {
              "internalType": "uint256",
              "name": "price",
              "type": "uint256"
            },
            {
              "internalType": "string",
              "name": "verificationNotes",
              "type": "string"
            },
            {
              "internalType": "address",
              "name": "retailer",
              "type": "address"
            },
            {
              "internalType": "uint256",
              "name": "timestamp",
              "type": "uint256"
            }
          ],
          "internalType": "struct SupplyChain.RetailerData",
          "name": "",
          "type": "tuple"
        }
      ],
      "stateMutability": "view",
      "type": "function"
    },
    {
      "inputs": [
        {
          "internalType": "address",
          "name": "_manufacturer",
          "type": "address"
        },
        {
          "internalType": "address",
          "name": "_distributor",
          "type": "address"
        },
        {
          "internalType": "address",
          "name": "_retailer",
          "type": "address"
        }
      ],
      "name": "initializeTestRoles",
      "outputs": [],
      "stateMutability": "nonpayable",
      "type": "function"
    },
    {
      "inputs": [
        {
          "internalType": "uint256",
          "name": "",
          "type": "uint256"
        }
      ],
      "name": "manufacturerData",
      "outputs": [
        {
          "internalType": "uint256",
          "name": "productId",
          "type": "uint256"
        },
        {
          "internalType": "string",
          "name": "productName",
          "type": "string"
        },
        {
          "internalType": "string",
          "name": "batchId",
          "type": "string"
        },
        {
          "internalType": "uint256",
          "name": "quantity",
          "type": "uint256"
        },
        {
          "internalType": "string",
          "name": "origin",
          "type": "string"
        },
        {
          "internalType": "uint256",
          "name": "manufacturingDate",
          "type": "uint256"
        },
        {
          "internalType": "string",
          "name": "qualityStandard",
          "type": "string"
        },
        {
          "internalType": "address",
          "name": "manufacturer",
          "type": "address"
        },
        {
          "internalType": "uint256",
          "name": "timestamp",
          "type": "uint256"
        }
      ],
      "stateMutability": "view",
      "type": "function"
    },
    {
      "inputs": [],
      "name": "productCount",
      "outputs": [
        {
          "internalType": "uint256",
          "name": "",
          "type": "uint256"
        }
      ],
      "stateMutability": "view",
      "type": "function"
    },
    {
      "inputs": [
        {
          "internalType": "uint256",
          "name": "",
          "type": "uint256"
        },
        {
          "internalType": "uint256",
          "name": "",
          "type": "uint256"
        }
      ],
      "name": "productHistory",
      "outputs": [
        {
          "internalType": "address",
          "name": "actor",
          "type": "address"
        },
        {
          "internalType": "enum SupplyChain.Status",
          "name": "status",
          "type": "uint8"
        },
        {
          "internalType": "uint256",
          "name": "timestamp",
          "type": "uint256"
        }
      ],
      "stateMutability": "view",
      "type": "function"
    },
    {
      "inputs": [
        {
          "internalType": "uint256",
          "name": "",
          "type": "uint256"
        }
      ],
      "name": "products",
      "outputs": [
        {
          "internalType": "uint256",
          "name": "id",
          "type": "uint256"
        },
        {
          "internalType": "string",
          "name": "name",
          "type": "string"
        },
        {
          "internalType": "string",
          "name": "batchId",
          "type": "string"
        },
        {
          "internalType": "address",
          "name": "owner",
          "type": "address"
        },
        {
          "internalType": "enum SupplyChain.Status",
          "name": "status",
          "type": "uint8"
        },
        {
          "internalType": "uint256",
          "name": "createdAt",
          "type": "uint256"
        }
      ],
      "stateMutability": "view",
      "type": "function"
    },
    {
      "inputs": [
        {
          "internalType": "uint256",
          "name": "",
          "type": "uint256"
        }
      ],
      "name": "retailerData",
      "outputs": [
        {
          "internalType": "uint256",
          "name": "productId",
          "type": "uint256"
        },
        {
          "internalType": "string",
          "name": "storageCondition",
          "type": "string"
        },
        {
          "internalType": "uint256",
          "name": "expiryDate",
          "type": "uint256"
        },
        {
          "internalType": "uint256",
          "name": "price",
          "type": "uint256"
        },
        {
          "internalType": "string",
          "name": "verificationNotes",
          "type": "string"
        },
        {
          "internalType": "address",
          "name": "retailer",
          "type": "address"
        },
        {
          "internalType": "uint256",
          "name": "timestamp",
          "type": "uint256"
        }
      ],
      "stateMutability": "view",
      "type": "function"
    },
    {
      "inputs": [
        {
          "internalType": "address",
          "name": "",
          "type": "address"
        }
      ],
      "name": "roles",
      "outputs": [
        {
          "internalType": "enum SupplyChain.Role",
          "name": "",
          "type": "uint8"
        }
      ],
      "stateMutability": "view",
      "type": "function"
    },
    {
      "inputs": [
        {
          "internalType": "uint256",
          "name": "_productId",
          "type": "uint256"
        },
        {
          "internalType": "address",
          "name": "_distributor",
          "type": "address"
        },
        {
          "internalType": "uint256",
          "name": "_temperature",
          "type": "uint256"
        },
        {
          "internalType": "uint256",
          "name": "_humidity",
          "type": "uint256"
        },
        {
          "internalType": "string",
          "name": "_location",
          "type": "string"
        },
        {
          "internalType": "string",
          "name": "_transportationMode",
          "type": "string"
        },
        {
          "internalType": "uint256",
          "name": "_expectedDeliveryDate",
          "type": "uint256"
        }
      ],
      "name": "transferToDistributor",
      "outputs": [],
      "stateMutability": "nonpayable",
      "type": "function"
    },
    {
      "inputs": [
        {
          "internalType": "uint256",
          "name": "_productId",
          "type": "uint256"
        },
        {
          "internalType": "address",
          "name": "_retailer",
          "type": "address"
        },
        {
          "internalType": "string",
          "name": "_storageCondition",
          "type": "string"
        },
        {
          "internalType": "uint256",
          "name": "_expiryDate",
          "type": "uint256"
        },
        {
          "internalType": "uint256",
          "name": "_price",
          "type": "uint256"
        },
        {
          "internalType": "string",
          "name": "_verificationNotes",
          "type": "string"
        }
      ],
      "name": "transferToRetailer",
      "outputs": [],
      "stateMutability": "nonpayable",
      "type": "function"
    }
  ],
  "bytecode": "0x608060405234801561001057600080fd5b50336000806101000a81548173ffffffffffffffffffffffffffffffffffffffff021916908373ffffffffffffffffffffffffffffffffffffffff160217905550613ab1806100606000396000f3fe608060405234801561001057600080fd5b506004361061010b5760003560e01c80638ef53a2e116100a2578063b4fccdaa11610071578063b4fccdaa14610316578063c88e66f81461034c578063da521c7514610368578063e0f6ef8714610398578063f851a440146103b65761010b565b80638ef53a2e14610262578063993746421461027e578063a88a2dfa146102ae578063afef8c56146102e65761010b565b806356ac24c2116100de57806356ac24c2146101c557806357a096a1146101e1578063630a195b146102115780637acc0b201461022d5761010b565b8063045d985114610110578063177325ce146101405780631d48a5e41461015c5780633a7d237614610193575b600080fd5b61012a600480360381019061012591906126fd565b6103d4565b60405161013791906128e4565b60405180910390f35b61015a60048036038101906101559190612932565b6106c8565b005b610176600480360381019061017191906126fd565b61097f565b60405161018a9897969594939291906129ed565b60405180910390f35b6101ad60048036038101906101a89190612a79565b610af7565b6040516101bc93929190612b30565b60405180910390f35b6101df60048036038101906101da9190612c9c565b610b6b565b005b6101fb60048036038101906101f691906126fd565b610ff7565b6040516102089190612e99565b60405180910390f35b61022b60048036038101906102269190612ee0565b611104565b005b610247600480360381019061024291906126fd565b61124b565b60405161025996959493929190612f20565b60405180910390f35b61027c60048036038101906102779190612f8f565b6113c4565b005b61029860048036038101906102939190613054565b6118b0565b6040516102a591906130c9565b60405180910390f35b6102c860048036038101906102c391906126fd565b6118d0565b6040516102dd999897969594939291906130e4565b60405180910390f35b61030060048036038101906102fb91906126fd565b611b5e565b60405161030d9190613244565b60405180910390f35b610330600480360381019061032b91906126fd565b611d38565b6040516103439796959493929190613266565b60405180910390f35b610366600480360381019061036191906132e3565b611eaa565b005b610382600480360381019061037d91906126fd565b6123aa565b60405161038f9190613460565b60405180910390f35b6103a0612579565b6040516103ad9190613482565b60405180910390f35b6103be61257f565b6040516103cb919061349d565b60405180910390f35b6103dc6125a3565b600560008381526020019081526020016000206040518061012001604052908160008201548152602001600182018054610415906134e7565b80601f0160208091040260200160405190810160405280929190818152602001828054610441906134e7565b801561048e5780601f106104635761010080835404028352916020019161048e565b820191906000526020600020905b81548152906001019060200180831161047157829003601f168201915b505050505081526020016002820180546104a7906134e7565b80601f01602080910402602001604051908101604052809291908181526020018280546104d3906134e7565b80156105205780601f106104f557610100808354040283529160200191610520565b820191906000526020600020905b81548152906001019060200180831161050357829003601f168201915b5050505050815260200160038201548152602001600482018054610543906134e7565b80601f016020809104026020016040519081016040528092919081815260200182805461056f906134e7565b80156105bc5780601f10610591576101008083540402835291602001916105bc565b820191906000526020600020905b81548152906001019060200180831161059f57829003601f168201915b50505050508152602001600582015481526020016006820180546105df906134e7565b80601f016020809104026020016040519081016040528092919081815260200182805461060b906134e7565b80156106585780601f1061062d57610100808354040283529160200191610658565b820191906000526020600020905b81548152906001019060200180831161063b57829003601f168201915b505050505081526020016007820160009054906101000a900473ffffffffffffffffffffffffffffffffffffffff1673ffffffffffffffffffffffffffffffffffffffff1673ffffffffffffffffffffffffffffffffffffffff1681526020016008820154815250509050919050565b60008054906101000a900473ffffffffffffffffffffffffffffffffffffffff1673ffffffffffffffffffffffffffffffffffffffff163373ffffffffffffffffffffffffffffffffffffffff1614610756576040517f08c379a000000000000000000000000000000000000000000000000000000000815260040161074d90613564565b60405180910390fd5b6001600260008573ffffffffffffffffffffffffffffffffffffffff1673ffffffffffffffffffffffffffffffffffffffff16815260200190815260200160002060006101000a81548160ff021916908360038111156107b9576107b8612ab9565b5b021790555060028060008473ffffffffffffffffffffffffffffffffffffffff1673ffffffffffffffffffffffffffffffffffffffff16815260200190815260200160002060006101000a81548160ff021916908360038111156108205761081f612ab9565b5b02179055506003600260008373ffffffffffffffffffffffffffffffffffffffff1673ffffffffffffffffffffffffffffffffffffffff16815260200190815260200160002060006101000a81548160ff0219169083600381111561088857610887612ab9565b5b02179055508273ffffffffffffffffffffffffffffffffffffffff167f4ac36fa53f167ceb85964be512e01de2a3b8bdb9862f917da079deeeff689b3860016040516108d491906130c9565b60405180910390a28173ffffffffffffffffffffffffffffffffffffffff167f4ac36fa53f167ceb85964be512e01de2a3b8bdb9862f917da079deeeff689b38600260405161092391906130c9565b60405180910390a28073ffffffffffffffffffffffffffffffffffffffff167f4ac36fa53f167ceb85964be512e01de2a3b8bdb9862f917da079deeeff689b38600360405161097291906130c9565b60405180910390a2505050565b60066020528060005260406000206000915090508060000154908060010154908060020154908060030180546109b4906134e7565b80601f01602080910402602001604051908101604052809291908181526020018280546109e0906134e7565b8015610a2d5780601f10610a0257610100808354040283529160200191610a2d565b820191906000526020600020905b815481529060010190602001808311610a1057829003601f168201915b505050505090806004018054610a42906134e7565b80601f0160208091040260200160405190810160405280929190818152602001828054610a6e906134e7565b8015610abb5780601f10610a9057610100808354040283529160200191610abb565b820191906000526020600020905b815481529060010190602001808311610a9e57829003601f168201915b5050505050908060050154908060060160009054906101000a900473ffffffffffffffffffffffffffffffffffffffff16908060070154905088565b60046020528160005260406000208181548110610b1357600080fd5b9060005260206000209060020201600091509150508060000160009054906101000a900473ffffffffffffffffffffffffffffffffffffffff16908060000160149054906101000a900460ff16908060010154905083565b6001806003811115610b8057610b7f612ab9565b5b600260003373ffffffffffffffffffffffffffffffffffffffff1673ffffffffffffffffffffffffffffffffffffffff16815260200190815260200160002060009054906101000a900460ff166003811115610bdf57610bde612ab9565b5b14610c1f576040517f08c379a0000000000000000000000000000000000000000000000000000000008152600401610c16906135d0565b60405180910390fd5b60016000815480929190610c329061361f565b91905055506040518060c0016040528060015481526020018881526020018781526020013373ffffffffffffffffffffffffffffffffffffffff16815260200160006002811115610c8657610c85612ab9565b5b815260200142815250600360006001548152602001908152602001600020600082015181600001556020820151816001019081610cc39190613813565b506040820151816002019081610cd99190613813565b5060608201518160030160006101000a81548173ffffffffffffffffffffffffffffffffffffffff021916908373ffffffffffffffffffffffffffffffffffffffff16021790555060808201518160030160146101000a81548160ff02191690836002811115610d4c57610d4b612ab9565b5b021790555060a0820151816004015590505060405180610120016040528060015481526020018881526020018781526020018681526020018581526020018481526020018381526020013373ffffffffffffffffffffffffffffffffffffffff16815260200142815250600560006001548152602001908152602001600020600082015181600001556020820151816001019081610dea9190613813565b506040820151816002019081610e009190613813565b50606082015181600301556080820151816004019081610e209190613813565b5060a0820151816005015560c0820151816006019081610e409190613813565b5060e08201518160070160006101000a81548173ffffffffffffffffffffffffffffffffffffffff021916908373ffffffffffffffffffffffffffffffffffffffff160217905550610100820151816008015590505060046000600154815260200190815260200160002060405180606001604052803373ffffffffffffffffffffffffffffffffffffffff16815260200160006002811115610ee657610ee5612ab9565b5b815260200142815250908060018154018082558091505060019003906000526020600020906002020160009091909190915060008201518160000160006101000a81548173ffffffffffffffffffffffffffffffffffffffff021916908373ffffffffffffffffffffffffffffffffffffffff16021790555060208201518160000160146101000a81548160ff02191690836002811115610f8a57610f89612ab9565b5b02179055506040820151816001015550503373ffffffffffffffffffffffffffffffffffffffff166001547f5f1912a9c5f8a881e905d410b7f74013932df43b5dec69d074d965f102e19af88989604051610fe69291906138e5565b60405180910390a350505050505050565b606060046000838152602001908152602001600020805480602002602001604051908101604052809291908181526020016000905b828210156110f957838290600052602060002090600202016040518060600160405290816000820160009054906101000a900473ffffffffffffffffffffffffffffffffffffffff1673ffffffffffffffffffffffffffffffffffffffff1673ffffffffffffffffffffffffffffffffffffffff1681526020016000820160149054906101000a900460ff1660028111156110ca576110c9612ab9565b5b60028111156110dc576110db612ab9565b5b81526020016001820154815250508152602001906001019061102c565b505050509050919050565b60008054906101000a900473ffffffffffffffffffffffffffffffffffffffff1673ffffffffffffffffffffffffffffffffffffffff163373ffffffffffffffffffffffffffffffffffffffff1614611192576040517f08c379a000000000000000000000000000000000000000000000000000000000815260040161118990613564565b60405180910390fd5b80600260008473ffffffffffffffffffffffffffffffffffffffff1673ffffffffffffffffffffffffffffffffffffffff16815260200190815260200160002060006101000a81548160ff021916908360038111156111f4576111f3612ab9565b5b02179055508173ffffffffffffffffffffffffffffffffffffffff167f4ac36fa53f167ceb85964be512e01de2a3b8bdb9862f917da079deeeff689b388260405161123f91906130c9565b60405180910390a25050565b6003602052806000526040600020600091509050806000015490806001018054611274906134e7565b80601f01602080910402602001604051908101604052809291908181526020018280546112a0906134e7565b80156112ed5780601f106112c2576101008083540402835291602001916112ed565b820191906000526020600020905b8154815290600101906020018083116112d057829003601f168201915b505050505090806002018054611302906134e7565b80601f016020809104026020016040519081016040528092919081815260200182805461132e906134e7565b801561137b5780601f106113505761010080835404028352916020019161137b565b820191906000526020600020905b81548152906001019060200180831161135e57829003601f168201915b5050505050908060030160009054906101000a900473ffffffffffffffffffffffffffffffffffffffff16908060030160149054906101000a900460ff16908060040154905086565b60028060038111156113d9576113d8612ab9565b5b600260003373ffffffffffffffffffffffffffffffffffffffff1673ffffffffffffffffffffffffffffffffffffffff16815260200190815260200160002060009054906101000a900460ff16600381111561143857611437612ab9565b5b14611478576040517f08c379a000000000000000000000000000000000000000000000000000000000815260040161146f906135d0565b60405180910390fd5b60006003600089815260200190815260200160002090503373ffffffffffffffffffffffffffffffffffffffff168160030160009054906101000a900473ffffffffffffffffffffffffffffffffffffffff1673ffffffffffffffffffffffffffffffffffffffff1614611521576040517f08c379a000000000000000000000000000000000000000000000000000000000815260040161151890613968565b60405180910390fd5b60038081111561153457611533612ab9565b5b600260008973ffffffffffffffffffffffffffffffffffffffff1673ffffffffffffffffffffffffffffffffffffffff16815260200190815260200160002060009054906101000a900460ff16600381111561159357611592612ab9565b5b146115d3576040517f08c379a00000000000000000000000000000000000000000000000000000000081526004016115ca906139d4565b60405180910390fd5b868160030160006101000a81548173ffffffffffffffffffffffffffffffffffffffff021916908373ffffffffffffffffffffffffffffffffffffffff16021790555060028160030160146101000a81548160ff0219169083600281111561163e5761163d612ab9565b5b02179055506040518060e001604052808981526020018781526020018681526020018581526020018481526020018873ffffffffffffffffffffffffffffffffffffffff16815260200142815250600760008a81526020019081526020016000206000820151816000015560208201518160010190816116be9190613813565b50604082015181600201556060820151816003015560808201518160040190816116e89190613813565b5060a08201518160050160006101000a81548173ffffffffffffffffffffffffffffffffffffffff021916908373ffffffffffffffffffffffffffffffffffffffff16021790555060c082015181600601559050506004600089815260200190815260200160002060405180606001604052803373ffffffffffffffffffffffffffffffffffffffff16815260200160028081111561178a57611789612ab9565b5b815260200142815250908060018154018082558091505060019003906000526020600020906002020160009091909190915060008201518160000160006101000a81548173ffffffffffffffffffffffffffffffffffffffff021916908373ffffffffffffffffffffffffffffffffffffffff16021790555060208201518160000160146101000a81548160ff0219169083600281111561182e5761182d612ab9565b5b02179055506040820151816001015550508673ffffffffffffffffffffffffffffffffffffffff163373ffffffffffffffffffffffffffffffffffffffff16897f0d9d3ad1299833596bec6138aae47314cbb71fb92c7582abed06e22840593ad4600260405161189e91906139f4565b60405180910390a45050505050505050565b60026020528060005260406000206000915054906101000a900460ff1681565b60056020528060005260406000206000915090508060000154908060010180546118f9906134e7565b80601f0160208091040260200160405190810160405280929190818152602001828054611925906134e7565b80156119725780601f1061194757610100808354040283529160200191611972565b820191906000526020600020905b81548152906001019060200180831161195557829003601f168201915b505050505090806002018054611987906134e7565b80601f01602080910402602001604051908101604052809291908181526020018280546119b3906134e7565b8015611a005780601f106119d557610100808354040283529160200191611a00565b820191906000526020600020905b8154815290600101906020018083116119e357829003601f168201915b505050505090806003015490806004018054611a1b906134e7565b80601f0160208091040260200160405190810160405280929190818152602001828054611a47906134e7565b8015611a945780601f10611a6957610100808354040283529160200191611a94565b820191906000526020600020905b815481529060010190602001808311611a7757829003601f168201915b505050505090806005015490806006018054611aaf906134e7565b80601f0160208091040260200160405190810160405280929190818152602001828054611adb906134e7565b8015611b285780601f10611afd57610100808354040283529160200191611b28565b820191906000526020600020905b815481529060010190602001808311611b0b57829003601f168201915b5050505050908060070160009054906101000a900473ffffffffffffffffffffffffffffffffffffffff16908060080154905089565b611b66612605565b6006600083815260200190815260200160002060405180610100016040529081600082015481526020016001820154815260200160028201548152602001600382018054611bb3906134e7565b80601f0160208091040260200160405190810160405280929190818152602001828054611bdf906134e7565b8015611c2c5780601f10611c0157610100808354040283529160200191611c2c565b820191906000526020600020905b815481529060010190602001808311611c0f57829003601f168201915b50505050508152602001600482018054611c45906134e7565b80601f0160208091040260200160405190810160405280929190818152602001828054611c71906134e7565b8015611cbe5780601f10611c9357610100808354040283529160200191611cbe565b820191906000526020600020905b815481529060010190602001808311611ca157829003601f168201915b50505050508152602001600582015481526020016006820160009054906101000a900473ffffffffffffffffffffffffffffffffffffffff1673ffffffffffffffffffffffffffffffffffffffff1673ffffffffffffffffffffffffffffffffffffffff1681526020016007820154815250509050919050565b6007602052806000526040600020600091509050806000015490806001018054611d61906134e7565b80601f0160208091040260200160405190810160405280929190818152602001828054611d8d906134e7565b8015611dda5780601f10611daf57610100808354040283529160200191611dda565b820191906000526020600020905b815481529060010190602001808311611dbd57829003601f168201915b505050505090806002015490806003015490806004018054611dfb906134e7565b80601f0160208091040260200160405190810160405280929190818152602001828054611e27906134e7565b8015611e745780601f10611e4957610100808354040283529160200191611e74565b820191906000526020600020905b815481529060010190602001808311611e5757829003601f168201915b5050505050908060050160009054906101000a900473ffffffffffffffffffffffffffffffffffffffff16908060060154905087565b6001806003811115611ebf57611ebe612ab9565b5b600260003373ffffffffffffffffffffffffffffffffffffffff1673ffffffffffffffffffffffffffffffffffffffff16815260200190815260200160002060009054906101000a900460ff166003811115611f1e57611f1d612ab9565b5b14611f5e576040517f08c379a0000000000000000000000000000000000000000000000000000000008152600401611f55906135d0565b60405180910390fd5b6000600360008a815260200190815260200160002090503373ffffffffffffffffffffffffffffffffffffffff168160030160009054906101000a900473ffffffffffffffffffffffffffffffffffffffff1673ffffffffffffffffffffffffffffffffffffffff1614612007576040517f08c379a0000000000000000000000000000000000000000000000000000000008152600401611ffe90613968565b60405180910390fd5b6002600381111561201b5761201a612ab9565b5b600260008a73ffffffffffffffffffffffffffffffffffffffff1673ffffffffffffffffffffffffffffffffffffffff16815260200190815260200160002060009054906101000a900460ff16600381111561207a57612079612ab9565b5b146120ba576040517f08c379a00000000000000000000000000000000000000000000000000000000081526004016120b190613a5b565b60405180910390fd5b878160030160006101000a81548173ffffffffffffffffffffffffffffffffffffffff021916908373ffffffffffffffffffffffffffffffffffffffff16021790555060018160030160146101000a81548160ff0219169083600281111561212557612124612ab9565b5b02179055506040518061010001604052808a81526020018881526020018781526020018681526020018581526020018481526020018973ffffffffffffffffffffffffffffffffffffffff16815260200142815250600660008b815260200190815260200160002060008201518160000155602082015181600101556040820151816002015560608201518160030190816121c09190613813565b5060808201518160040190816121d69190613813565b5060a0820151816005015560c08201518160060160006101000a81548173ffffffffffffffffffffffffffffffffffffffff021916908373ffffffffffffffffffffffffffffffffffffffff16021790555060e08201518160070155905050600460008a815260200190815260200160002060405180606001604052803373ffffffffffffffffffffffffffffffffffffffff1681526020016001600281111561228357612282612ab9565b5b815260200142815250908060018154018082558091505060019003906000526020600020906002020160009091909190915060008201518160000160006101000a81548173ffffffffffffffffffffffffffffffffffffffff021916908373ffffffffffffffffffffffffffffffffffffffff16021790555060208201518160000160146101000a81548160ff0219169083600281111561232757612326612ab9565b5b02179055506040820151816001015550508773ffffffffffffffffffffffffffffffffffffffff163373ffffffffffffffffffffffffffffffffffffffff168a7f0d9d3ad1299833596bec6138aae47314cbb71fb92c7582abed06e22840593ad4600160405161239791906139f4565b60405180910390a4505050505050505050565b6123b2612660565b600760008381526020019081526020016000206040518060e0016040529081600082015481526020016001820180546123ea906134e7565b80601f0160208091040260200160405190810160405280929190818152602001828054612416906134e7565b80156124635780601f1061243857610100808354040283529160200191612463565b820191906000526020600020905b81548152906001019060200180831161244657829003601f168201915b505050505081526020016002820154815260200160038201548152602001600482018054612490906134e7565b80601f01602080910402602001604051908101604052809291908181526020018280546124bc906134e7565b80156125095780601f106124de57610100808354040283529160200191612509565b820191906000526020600020905b8154815290600101906020018083116124ec57829003601f168201915b505050505081526020016005820160009054906101000a900473ffffffffffffffffffffffffffffffffffffffff1673ffffffffffffffffffffffffffffffffffffffff1673ffffffffffffffffffffffffffffffffffffffff1681526020016006820154815250509050919050565b60015481565b60008054906101000a900473ffffffffffffffffffffffffffffffffffffffff1681565b60405180610120016040528060008152602001606081526020016060815260200160008152602001606081526020016000815260200160608152602001600073ffffffffffffffffffffffffffffffffffffffff168152602001600081525090565b604051806101000160405280600081526020016000815260200160008152602001606081526020016060815260200160008152602001600073ffffffffffffffffffffffffffffffffffffffff168152602001600081525090565b6040518060e001604052806000815260200160608152602001600081526020016000815260200160608152602001600073ffffffffffffffffffffffffffffffffffffffff168152602001600081525090565b6000604051905090565b600080fd5b600080fd5b6000819050919050565b6126da816126c7565b81146126e557600080fd5b50565b6000813590506126f7816126d1565b92915050565b600060208284031215612713576127126126bd565b5b6000612721848285016126e8565b91505092915050565b612733816126c7565b82525050565b600081519050919050565b600082825260208201905092915050565b60005b83811015612773578082015181840152602081019050612758565b60008484015250505050565b6000601f19601f8301169050919050565b600061279b82612739565b6127a58185612744565b93506127b5818560208601612755565b6127be8161277f565b840191505092915050565b600073ffffffffffffffffffffffffffffffffffffffff82169050919050565b60006127f4826127c9565b9050919050565b612804816127e9565b82525050565b600061012083016000830151612823600086018261272a565b506020830151848203602086015261283b8282612790565b915050604083015184820360408601526128558282612790565b915050606083015161286a606086018261272a565b50608083015184820360808601526128828282612790565b91505060a083015161289760a086018261272a565b5060c083015184820360c08601526128af8282612790565b91505060e08301516128c460e08601826127fb565b506101008301516128d961010086018261272a565b508091505092915050565b600060208201905081810360008301526128fe818461280a565b905092915050565b61290f816127e9565b811461291a57600080fd5b50565b60008135905061292c81612906565b92915050565b60008060006060848603121561294b5761294a6126bd565b5b60006129598682870161291d565b935050602061296a8682870161291d565b925050604061297b8682870161291d565b9150509250925092565b61298e816126c7565b82525050565b600082825260208201905092915050565b60006129b082612739565b6129ba8185612994565b93506129ca818560208601612755565b6129d38161277f565b840191505092915050565b6129e7816127e9565b82525050565b600061010082019050612a03600083018b612985565b612a10602083018a612985565b612a1d6040830189612985565b8181036060830152612a2f81886129a5565b90508181036080830152612a4381876129a5565b9050612a5260a0830186612985565b612a5f60c08301856129de565b612a6c60e0830184612985565b9998505050505050505050565b60008060408385031215612a9057612a8f6126bd565b5b6000612a9e858286016126e8565b9250506020612aaf858286016126e8565b9150509250929050565b7f4e487b7100000000000000000000000000000000000000000000000000000000600052602160045260246000fd5b60038110612af957612af8612ab9565b5b50565b6000819050612b0a82612ae8565b919050565b6000612b1a82612afc565b9050919050565b612b2a81612b0f565b82525050565b6000606082019050612b4560008301866129de565b612b526020830185612b21565b612b5f6040830184612985565b949350505050565b600080fd5b600080fd5b7f4e487b7100000000000000000000000000000000000000000000000000000000600052604160045260246000fd5b612ba98261277f565b810181811067ffffffffffffffff82111715612bc857612bc7612b71565b5b80604052505050565b6000612bdb6126b3565b9050612be78282612ba0565b919050565b600067ffffffffffffffff821115612c0757612c06612b71565b5b612c108261277f565b9050602081019050919050565b82818337600083830152505050565b6000612c3f612c3a84612bec565b612bd1565b905082815260208101848484011115612c5b57612c5a612b6c565b5b612c66848285612c1d565b509392505050565b600082601f830112612c8357612c82612b67565b5b8135612c93848260208601612c2c565b91505092915050565b60008060008060008060c08789031215612cb957612cb86126bd565b5b600087013567ffffffffffffffff811115612cd757612cd66126c2565b5b612ce389828a01612c6e565b965050602087013567ffffffffffffffff811115612d0457612d036126c2565b5b612d1089828a01612c6e565b9550506040612d2189828a016126e8565b945050606087013567ffffffffffffffff811115612d4257612d416126c2565b5b612d4e89828a01612c6e565b9350506080612d5f89828a016126e8565b92505060a087013567ffffffffffffffff811115612d8057612d7f6126c2565b5b612d8c89828a01612c6e565b9150509295509295509295565b600081519050919050565b600082825260208201905092915050565b6000819050602082019050919050565b612dce81612b0f565b82525050565b606082016000820151612dea60008501826127fb565b506020820151612dfd6020850182612dc5565b506040820151612e10604085018261272a565b50505050565b6000612e228383612dd4565b60608301905092915050565b6000602082019050919050565b6000612e4682612d99565b612e508185612da4565b9350612e5b83612db5565b8060005b83811015612e8c578151612e738882612e16565b9750612e7e83612e2e565b925050600181019050612e5f565b5085935050505092915050565b60006020820190508181036000830152612eb38184612e3b565b905092915050565b60048110612ec857600080fd5b50565b600081359050612eda81612ebb565b92915050565b60008060408385031215612ef757612ef66126bd565b5b6000612f058582860161291d565b9250506020612f1685828601612ecb565b9150509250929050565b600060c082019050612f356000830189612985565b8181036020830152612f4781886129a5565b90508181036040830152612f5b81876129a5565b9050612f6a60608301866129de565b612f776080830185612b21565b612f8460a0830184612985565b979650505050505050565b60008060008060008060c08789031215612fac57612fab6126bd565b5b6000612fba89828a016126e8565b9650506020612fcb89828a0161291d565b955050604087013567ffffffffffffffff811115612fec57612feb6126c2565b5b612ff889828a01612c6e565b945050606061300989828a016126e8565b935050608061301a89828a016126e8565b92505060a087013567ffffffffffffffff81111561303b5761303a6126c2565b5b61304789828a01612c6e565b9150509295509295509295565b60006020828403121561306a576130696126bd565b5b60006130788482850161291d565b91505092915050565b6004811061309257613091612ab9565b5b50565b60008190506130a382613081565b919050565b60006130b382613095565b9050919050565b6130c3816130a8565b82525050565b60006020820190506130de60008301846130ba565b92915050565b6000610120820190506130fa600083018c612985565b818103602083015261310c818b6129a5565b90508181036040830152613120818a6129a5565b905061312f6060830189612985565b818103608083015261314181886129a5565b905061315060a0830187612985565b81810360c083015261316281866129a5565b905061317160e08301856129de565b61317f610100830184612985565b9a9950505050505050505050565b6000610100830160008301516131a6600086018261272a565b5060208301516131b9602086018261272a565b5060408301516131cc604086018261272a565b50606083015184820360608601526131e48282612790565b915050608083015184820360808601526131fe8282612790565b91505060a083015161321360a086018261272a565b5060c083015161322660c08601826127fb565b5060e083015161323960e086018261272a565b508091505092915050565b6000602082019050818103600083015261325e818461318d565b905092915050565b600060e08201905061327b600083018a612985565b818103602083015261328d81896129a5565b905061329c6040830188612985565b6132a96060830187612985565b81810360808301526132bb81866129a5565b90506132ca60a08301856129de565b6132d760c0830184612985565b98975050505050505050565b600080600080600080600060e0888a031215613302576133016126bd565b5b60006133108a828b016126e8565b97505060206133218a828b0161291d565b96505060406133328a828b016126e8565b95505060606133438a828b016126e8565b945050608088013567ffffffffffffffff811115613364576133636126c2565b5b6133708a828b01612c6e565b93505060a088013567ffffffffffffffff811115613391576133906126c2565b5b61339d8a828b01612c6e565b92505060c06133ae8a828b016126e8565b91505092959891949750929550565b600060e0830160008301516133d5600086018261272a565b50602083015184820360208601526133ed8282612790565b9150506040830151613402604086018261272a565b506060830151613415606086018261272a565b506080830151848203608086015261342d8282612790565b91505060a083015161344260a08601826127fb565b5060c083015161345560c086018261272a565b508091505092915050565b6000602082019050818103600083015261347a81846133bd565b905092915050565b60006020820190506134976000830184612985565b92915050565b60006020820190506134b260008301846129de565b92915050565b7f4e487b7100000000000000000000000000000000000000000000000000000000600052602260045260246000fd5b600060028204905060018216806134ff57607f821691505b602082108103613512576135116134b8565b5b50919050565b7f4f6e6c792061646d696e20616c6c6f7765640000000000000000000000000000600082015250565b600061354e601283612994565b915061355982613518565b602082019050919050565b6000602082019050818103600083015261357d81613541565b9050919050565b7f4163636573732064656e69656400000000000000000000000000000000000000600082015250565b60006135ba600d83612994565b91506135c582613584565b602082019050919050565b600060208201905081810360008301526135e9816135ad565b9050919050565b7f4e487b7100000000000000000000000000000000000000000000000000000000600052601160045260246000fd5b600061362a826126c7565b91507fffffffffffffffffffffffffffffffffffffffffffffffffffffffffffffffff820361365c5761365b6135f0565b5b600182019050919050565b60008190508160005260206000209050919050565b60006020601f8301049050919050565b600082821b905092915050565b6000600883026136c97fffffffffffffffffffffffffffffffffffffffffffffffffffffffffffffffff8261368c565b6136d3868361368c565b95508019841693508086168417925050509392505050565b6000819050919050565b600061371061370b613706846126c7565b6136eb565b6126c7565b9050919050565b6000819050919050565b61372a836136f5565b61373e61373682613717565b848454613699565b825550505050565b600090565b613753613746565b61375e818484613721565b505050565b5b818110156137825761377760008261374b565b600181019050613764565b5050565b601f8211156137c75761379881613667565b6137a18461367c565b810160208510156137b0578190505b6137c46137bc8561367c565b830182613763565b50505b505050565b600082821c905092915050565b60006137ea600019846008026137cc565b1980831691505092915050565b600061380383836137d9565b9150826002028217905092915050565b61381c82612739565b67ffffffffffffffff81111561383557613834612b71565b5b61383f82546134e7565b61384a828285613786565b600060209050601f83116001811461387d576000841561386b578287015190505b61387585826137f7565b8655506138dd565b601f19841661388b86613667565b60005b828110156138b35784890151825560018201915060208501945060208101905061388e565b868310156138d057848901516138cc601f8916826137d9565b8355505b6001600288020188555050505b505050505050565b600060408201905081810360008301526138ff81856129a5565b9050818103602083015261391381846129a5565b90509392505050565b7f4e6f742070726f64756374206f776e6572000000000000000000000000000000600082015250565b6000613952601183612994565b915061395d8261391c565b602082019050919050565b6000602082019050818103600083015261398181613945565b9050919050565b7f5265636569766572206e6f742072657461696c65720000000000000000000000600082015250565b60006139be601583612994565b91506139c982613988565b602082019050919050565b600060208201905081810360008301526139ed816139b1565b9050919050565b6000602082019050613a096000830184612b21565b92915050565b7f5265636569766572206e6f74206469737472696275746f720000000000000000600082015250565b6000613a45601883612994565b9150613a5082613a0f565b602082019050919050565b60006020820190508181036000830152613a7481613a38565b905091905056fea264697066735822122006f2c28210158cc3a913d7781b24ac90ef18b7e8d9c557b5d6cfb00970d0972f64736f6c63430008140033",
  "linkReferences": {},
  "deployedLinkReferences": {}
}